:020000040800F2
:10000000400D002045610008D1140008D3140008F9
:10001000D7140008DB140008DF14000800000000FB
:10002000000000000000000000000000E3140008D1
:10003000E514000800000000E7140008E9140008B7
:100040005F6100085F6100085F6100085F61000890
:100050005F6100085F6100085F6100085F61000880
:100060005F6100085F6100085F6100085F61000870
:100070005F6100085F6100085F6100085F61000860
:100080005F6100085F6100085F6100085F61000850
:100090005F6100085F6100085F6100085F61000840
:1000A0005F6100085F6100085F6100086F60000821
:1000B000F34400085F6100080B4500085F61000819
:1000C0005F6100085F6100085F6100085F61000810
:1000D0005F610008C986000843890008158A000886
:1000E000C91000085F6100085F6100085F610008D7
:1000F0005F6100085F6100085F6100085F610008E0
:100100005F6100085F6100085F6100085F610008CF
:100110005F6100085F6100085F6100085F610008BF
:100120005F6100085F6100085F6100085F610008AF
:1001300000F002F800F05FF80AA090E8000C82449A
:100140008344AAF10107DA4501D100F054F8AFF277
:10015000090EBAE80F0013F0010F18BFFB1A43F0A5
:1001600001031847F4C1000014C200000A444FF014
:10017000000C10F8013B13F0070408BF10F8014B06
:100180001D1108BF10F8015B641E05D010F8016B4B
:10019000641E01F8016BF9D113F0080F1EBF10F8AF
:1001A000014BAD1C0C1B09D16D1E58BF01F801CBD2
:1001B000FAD505E014F8016B01F8016B6D1EF9D555
:1001C0009142D6D37047000000230024002500266A
:1001D000103A28BF78C1FBD8520728BF30C148BFAA
:1001E0000B607047642908F02585002070471FB513
:1001F0001FBD10B510BD08F0EBFE1146FFF7F7FF6D
:1002000000F00EF808F009FF03B4FFF7F2FF03BC9B
:1002100008F0FEF930BF72B662B680F30888704706
:1002200008F02EF80A2008F068F8022008F082F999
:10023000012008F07FF90A2008F05FF8022008F09A
:100240008FF84FF4E13008F0FEF94FF4165008F043
:1002500084FB322008F051F805F0B6FD04F0F0FC04
:1002600004F036FC01F032FA05F05CFE47214FF64F
:10027000FF7005F069FE322008F03FF8002141F6DA
:100280001F4004F021FD04F081F804F0CCF80A20AE
:1002900008F033F804F084F904F040FF04F052FF52
:1002A0004FF4FA7008F029F804F042F90A2008F037
:1002B00024F825E0FE48007808B9012000E000207D
:1002C000FB4908700846007810B905F062FA0FE0A3
:1002D000F84800680AF0F2F90446F74800680AF0A6
:1002E000EDF90546F54821460268284608F03AFA35
:1002F0000120F349087000BFF14800780028FBD1C5
:10030000D8E72DE9F34F83B08346584604990AF0A5
:100310003DFB0290EB4902980AF0FCF949D2EA4908
:1003200002980AF0F7FA44D2E848006809F0FAFFA8
:100330000646E74AE74B09F0E5FC044609F020FAD7
:10034000E2490860029809F0EDFF0646E04AE24BF8
:1003500009F0D8FCCDE90001DC48006809F0E2FFB3
:100360008046DDE9002309F03DFA044609F008FA69
:10037000D6490860D9480168D44800680AF006FBED
:10038000D7490860D1480068D4490860D548016859
:10039000D34800680AF0F2F90446D3480168CB4814
:1003A00000680AF0EBF90546214609F0E7FF8246AE
:1003B00045E0C648006809F0B5FF0646C44AC54B8B
:1003C00009F0A0FC044609F0DBF9C0490860029876
:1003D00009F0A8FFBE4AC04BCDE9000109F092FC2C
:1003E00006460F46B948006809F09CFF8046324631
:1003F0003B4609F0F7F9044609F0C2F9B349086031
:10040000B6480168B14800680AF0C0FAB44908600B
:10041000AE480068B1490860B2480168B048006859
:100420000AF0ACF90446B0480168A84800680AF030
:10043000A5F90546214609F0A1FF80F0004AAB4826
:10044000007810B1AA48007830B90020A3490860AC
:100450009E490860A249086050460AF0F3F805B0CA
:10046000BDE8F08F2DE9FE4F834658460AF026F985
:100470000290A048006809F055FF0646944A954B43
:1004800009F040FC044609F07BF99A49086002989B
:1004900009F048FF8E4A904BCDE9000109F032FC8B
:1004A00006460F469348006809F03CFF80463246F6
:1004B0003B4609F097F9044609F062F98D49086056
:1004C00058460AF0FBF804468B480168204609F0BC
:1004D00055FF89490860894801688748006809F024
:1004E0004DFF854908608649834800680AF012FA82
:1004F00002D283488049086082497F4800680AF038
:1005000009F902D27F487C4908607F4801687A482F
:1005100000680AF033F906466A4909F09DFF04466F
:100520007A480168734800680AF028F905462146B0
:1005300009F024FF82466D48007810B16C480078BD
:1005400020B900206B4908606B49086050460AF0EA
:1005500079F8BDE8FE8F2DE9F04705460E46314695
:1005600028460AF013FA04466948016820460AF052
:100570000DFA6849086068480168664800680AF032
:10058000FDF880462146654800680AF0F7F8814684
:10059000414609F0F3FE07465D4804605348007881
:1005A00010B15348007820B90020594908605949D2
:1005B000086038460AF046F8BDE8F08770B5044692
:1005C0000D46002C0CDA00205549086001205549E1
:1005D000C1F8BC01604281B2534807F00BFC0AE04D
:1005E00001204F49086000204E49C1F8BC01A1B26A
:1005F0004D4807F0FFFB002D0DDA0020484908396F
:10060000086001204749C1F8B401684281B24648F8
:1006100007F0F2FB0BE00120414908390860002097
:100620004049C1F8B401A9B23F4807F0E5FB70BDED
:1006300010B52F48007808BB3C480068401C3B4977
:10064000086008460068B0F5967F17DD38493948DC
:1006500000680AF05FF911D23749364800680AF09D
:1006600059F80BD21448006810B93448006828B112
:1006700001201F49087000202C49086010BD70B58A
:100680001B48007801287CD12D4800682D49098835
:1006900088426DDB2C4800680749096808442A49EC
:1006A00008602A48006825490968084427494FE03E
:1006B0008C000020580000204C000020000000208A
:1006C0008E0000200000C8420000C8C2A000002028
:1006D0009A9999999999E93F9999C93F9C00002065
:1006E000A4000020380000203400002080000020FA
:1006F00081000020A8000020AC0000204000002065
:100700000000FA440000FAC4300000202C00002051
:1007100094000020980000202800002020000020E5
:10072000B88121420080214200040040D000002016
:100730000000A0C0180000200000A04050000020D1
:100740006C00002090000020B8000020BC000020B9
:1007500008600020FE490860FE48006818B9FE489D
:100760000068FE490860FB480068401CF9490860C1
:10077000F84800680A2821DDF8480168F648006852
:1007800000E093E00AF002F9064609F0CBFD0446CA
:100790000022F34B09F0B4FB10D2F2480068C828DD
:1007A0000CDDF1480068C82808DD0020EF4908701A
:1007B000EC490860EC490860E6490860E5480068D3
:1007C0000A2806DD0020E7490860E7490860E1499A
:1007D0000860E7480068E7490988494288421CDC0C
:1007E000E0480068E44909680844DE490860DE48DA
:1007F0000068E24909680844DB4908600020D549DF
:100800000860D348006818B9D3480068DC4908601C
:10081000CF480068401CCE490860CD4800680A28CF
:1008200021DDD7480168CC4800680AF0AFF80646D9
:1008300009F078FD04460022D24B09F027FA12D2C3
:10084000C848006810F1C80F0DDAC748006810F1F9
:10085000C80F08DA0020C5490870C2490860C249BB
:100860000860BB490860BA4800680A2806DD002015
:10087000BC490860BC490860B5490860BE480068CA
:10088000032803DCBD480068032802DD0020B049CE
:100890000860B948006810F1030F04DBB74800682E
:1008A00010F1030F02DA0020AA49086070BD10B5EC
:1008B000B548006801280DD1B3480C300068012804
:1008C00008D1B14810300068012803D10020AF4999
:1008D0000870A2E00120AD490870AD48AD4908603C
:1008E000A948006870B9A8480C300068012809D1EF
:1008F000A5481030006828B90020A7490860A7491A
:10090000086051E0A048006801280DD19E480C30D5
:100910000068012808D19C481030006820B94FF0C9
:1009200080409D4908603FE09748006801280BD14E
:1009300095480C30006838B993481030006818B9F1
:100940009748954908602FE08F48006870B98E4835
:100950000C300068012809D18B481030006801284C
:1009600004D14FF040408C4908601DE08648006883
:1009700060B985480C30006840B983481030006881
:10098000012803D18748844908600DE07E4800684B
:1009900050B97D480C30006830B97B481030006891
:1009A00010B900207C4908607B4801687B480068DA
:1009B00009F0E4FC7949086000217848006809F0F2
:1009C000E5FF79490860794801687748006809F0CF
:1009D000DDFF77490860744800687449086075480D
:1009E00001687348006809F0C9FE80F000442046A1
:1009F00009F028FE704908607048007810B15B4823
:100A0000007850B90020644908606449086067496B
:100A10000860674908605F49086010BD2DE9F05F14
:100A20005A480078002875D1654800680828FAD12E
:100A3000644800680A2871DD6348007800286DD199
:100A400062480078002869D15E480068B0F5967F5A
:100A500061DA5C490968A1F1960009F02FFE5C4952
:100A600008605C48006809F05DFC06465A4A5B4B2A
:100A700009F048F9044608F083FE564908605448D6
:100A8000006809F04FFC8046534A554B09F03AF98B
:100A900082468B464F48006809F044FC06465246A1
:100AA0005B4608F09FFE044608F06AFE494908606C
:100AB0004C4801684748006809F068FF4A490860E7
:100AC000444800684749086048480168464800684B
:100AD00009F054FE0446464801683E48006809F0A3
:100AE0004DFE0546214609F049FC2A490860414966
:100AF0002848006809F00EFE02D23E4825490860E9
:100B00003D492448006809F005FF07D23A482149C9
:100B1000086003E0E1E000201E4908602948006801
:100B20000A2814DD28480078002810D127480078CA
:100B300001280CD123480068B0F5C87F65DA2F483A
:100B4000007818B92E480078401C5BE05DE0BBE0FF
:100B5000C4000020C000002004000020C8000020C5
:100B60000000E0BFB8000020BC0000208100002091
:100B70006C000020900000204C000020500000205D
:100B8000CC0000200000E03F0C0121428200002048
:100B9000000020414000002004010020000100204E
:100BA0000000C0400000C0C0FC000020F400002095
:100BB000F8000020F00000206800002080000020E5
:100BC000BC010020480000208A0000208B0000208B
:100BD000EC000020E40000209A9999999999E93F46
:100BE0009999C93FE0000020E8000020DC000020C7
:100BF000D80000200000F0C10000F041D400002027
:100C0000D5000020FE4908700AE0FE480068B0F5F3
:100C1000C87F05DDFC48007810B90020F84908704D
:100C2000F7480078142805DD0120F74908700020F6
:100C3000F3490870F448007801281AD1F349F448C0
:100C4000006809F0A3FEF2490860F249F048006824
:100C500009F060FD0AD2EE480168EE4809F096FE00
:100C60000446ED4909F087FEE94908600220E6499B
:100C70000870E7480168E948006809F087FE044603
:100C8000E74909F047FD0DD2E1480168E3480068F3
:100C900009F07CFE0446E34909F03CFE02D2002044
:100CA000D9490870E049E148006809F033FD02D2F3
:100CB000DD48DE490860DE49DC48006809F02AFEAC
:100CC00002D2DB48D9490860DA48007828B9DA4806
:100CD000007810B90020D9490860BDE8F09FD848D5
:100CE0000078002871D1D7480068012804D1D6497E
:100CF00008700020D3490860D2480068022804D157
:100D00000020D1490870CF490860CE480068032808
:100D100002D1CE48CE490860CA480068042803D0F2
:100D2000C8480068082802D1CA48C9490860CA48AA
:100D30000068F8280BDBC8480068B0F5927F06DC35
:100D40000120BD4908700020BA49087050E0C2482F
:100D5000006844280ADBC0480068702806DC0220CE
:100D6000B54908700020B349087041E0BA480068EE
:100D7000CB280ADBB8480068F72806DC0320AE4918
:100D800008700020AB49087032E0B3480068B0F545
:100D9000927F0BDDB0480068B0F5A97F06DA042029
:100DA000A54908700020A349087021E0AA480068FE
:100DB00071280BDBA84800689D2807DC05209E49A8
:100DC000087000209B49087012E000E1A24800680A
:100DD00017280ADBA0480068432806DC062096494D
:100DE000087000209349087002E0002092490870C2
:100DF000994800689E280ADB97480068CA2806DCE4
:100E000000208D49087001208A4908701BE0924833
:100E10000068002803DB90480068162809DD8E482A
:100E20000068B0F5A97F0BDB8B480068B0F5B47F94
:100E300006DC00208049087002207E49087002E02C
:100E400000207C49087084480068B0F5FF7F04D119
:100E500000207949087077490870774800780128A0
:100E60000AD17448007838B9794800686F49086039
:100E700000207249086077E06F48007802280CD1A2
:100E80006C48007848B97248006880F000406749B3
:100E9000086000206949086066E067480078032818
:100EA00014D16448007888B9694800685F490860CF
:100EB000624800681438614908600846006810F10B
:100EC000C80F51DA6FF0C70008604DE05A4800784B
:100ED000042812D15748007878B95D480068534912
:100EE0000860564800681430544908600846006895
:100EF000C82839DDC820086036E04F48007805284A
:100F000014D14C48007888B95148006880F00040FE
:100F10004649086049480068143048490860084656
:100F20000068C82820DDC82008601DE0424800781D
:100F3000062816D13F48007898B94548006880F0E7
:100F400000403A4908603D48006814383B49086051
:100F50000846006810F1C80F06DA6FF0C700086095
:100F600002E000203149086032480078012810D1A1
:100F70003148007868B9314800680A382F4908605C
:100F8000084600683549884218DA08462B49086047
:100F900014E028480078022810D12748007868B962
:100FA000264800680A30254908600846006840F66F
:100FB000B831884202DD0846204908601D480078A3
:100FC00028B91D48007810B900201C4908607047F6
:100FD00010B5462003F08CFD2149087008460078C2
:100FE00001280BD11848007840B901201649087033
:100FF00000201B49087001201A490870184833E086
:10100000D500002048000020D40000200000B44299
:101010001C000020000033C3000033430800002000
:101020000000A0400000A0C0000070C140000020EF
:10103000000070418A0000208B0000206800002022
:1010400082000020BC0100208000002000004843F6
:10105000440000200000C842C401002048F4FFFF03
:10106000B400002081000020007801280AD1EF4858
:101070000078012806D10020EC490870EC4908707E
:10108000EC49087010BD10B502460020EA4B5A61C9
:1010900000210EE0E84C4B1C54F8233044F821307A
:1010A000234653F82130E54C24682344E34C236065
:1010B000491C0529EEDBE14B1B68052493FBF4F08A
:1010C0000023DE4C236010BD2DE9F04F8BB0DC48CF
:1010D000006800287ED14FF48050DA490860022071
:1010E00003F0EBF94042D8490860042003F0E5F929
:1010F000D649086004F063F8D5480168D54800680F
:1011000009F044FCD449086004F080FFD34908602A
:1011100008460068FFF7B7FFD0490860FFF758FF9F
:10112000FFF7DDFDFFF77AFCFFF7C1FBBF48007852
:1011300001287DD1CA49C848006809F0EBFA78D285
:10114000C849C548006809F0E5FBF8D2BE490968FE
:10115000BE4A1268881800EBD0714910C24A11606B
:10116000002410460068FFF77DF90446B84801687E
:10117000B8480068FFF7EFF92044BC490860BC4854
:101180000078002852D1BB48007838B1B9480078BF
:10119000012803D0B748007802280CD1B64800785F
:1011A00048B9B648007830B90120B3490870B4484E
:1011B0000068B4490860AF480078032810D0AD48F3
:1011C000007804280CD0AB480078052808D0A9483E
:1011D000007800E026E1062802D0A848007840B157
:1011E000A5480078012804D10020A3490870A64929
:1011F0000860A1480078012807D1A2480168A048EA
:101200000068FFF77EF8A04908609F480068B0F5C5
:10121000487F03DD4FF448709B4908609A48006896
:1012200010F5487F02DA9948974908608F4801E035
:1012300023E016E0006896490968401A9249096857
:10124000401A94490860894800689149096808442F
:101250008D49096808449049086000208F4908704A
:1012600004E08E480078401C8C4908708B48007858
:101270000A2802DD00206D4908708948006840F2A4
:101280005641884205DA87480088401C8549088015
:1012900002E000208349088082480088B0F5487F3A
:1012A00002DD00206149087060480078012803D100
:1012B000FFF7E5F9FFF7BCF941F6BC307A49088041
:1012C000744800680988884203DD774800887149BE
:1012D000086070480068744909884942884204DA05
:1012E0007148008840426B4908606B4800686E494D
:1012F0000988884203DD6C480088674908606648B1
:101300000068694909884942884204DA66480088C9
:101310004042614908604548007801280AD14548A3
:101320000078012806D15C4801685A480068FFF738
:1013300045F91FE000210846FFF740F90020554914
:1013400008605549086049490860514908604E499C
:1013500008604949087053490880454908700021D0
:101360000846FFF7F8F80020FFF77CF80021084650
:10137000FEF7C7FF022000F0EBF9019008F073FCC4
:1013800080464FF06632494B08F0BCFC0022484BC7
:10139000CDE9020108F0B6FC0022464BCDE904017C
:1013A00008F0B0FC0022444BCDE9060108F0D6FA63
:1013B00006460022414B08F0D1FACDE90801404829
:1013C000006808F050FC0446DDE9082308F00AFA3A
:1013D000824608F01BFC3A4908603A480068401C05
:1013E000384908600846006896280BD134480068E0
:1013F0009621B0FBF1F02A490860002030490860CE
:10140000304908603048007801280BD12F48007817
:10141000401CC0B22D490870062803D10020087076
:101420002949087000200BB0BDE8F08F8000002033
:10143000B400002081000020D0010020B000002076
:1014400030012142140401404C00002050000020D3
:101450003C0000200400002018000020480000206C
:101460000000F0410000F0C1540000206C0000209A
:10147000820000208B000020830000208A000020D2
:10148000080000201C00002064000020E0FCFFFF9A
:1014900068000020580000205C0000208900002027
:1014A00060000020920000209000002066660A4044
:1014B00000002640000059400000F03F0000B0400E
:1014C00074000020780000208E0000208D00002095
:1014D000704700BFFEE700BFFEE700BFFEE700BFAA
:1014E000FEE7704770477047704700000CB500205A
:1014F000019000906C48006840F480306A490860B0
:1015000000BF6948006800F4003000900198401C5A
:101510000190009818B90198B0F5A06FF1D1624818
:10152000006800F4003010B10120009001E00020BC
:1015300000900098012843D15C48006840F01000FA
:101540005A4908600846006820F003000860084611
:10155000006840F002000860534840685249486003
:101560000846406848600846406840F4806048602B
:101570000846406820F47C1048600846406840F403
:10158000E81048600846006840F08070086000BFBE
:101590004548006800F000700028F9D042484068D3
:1015A00020F00300404948600846406840F00200CF
:1015B000486000BF3C48406800F00C000828F9D1A2
:1015C0000CBD10B5FFF792FF10BD10B5364800688E
:1015D00040F001003449086008464068344908403A
:1015E0003149486008460068324908402E49086081
:1015F0000846006820F4802008600846406820F40F
:10160000FE0048604FF41F008860FFF7DAFF4FF0DC
:1016100000602949086010BD10B50021002000229B
:10162000214B5B6803F00C0121B1042906D0082985
:1016300028D107E0214B224C236027E01F4B204C90
:10164000236023E0184B5B6803F47010164B5B6853
:1016500003F48032022303EB904022B9194B434339
:10166000174C23600DE0104B5B6803F4003323B18B
:10167000144B4343124C236003E0104B4343104C84
:10168000236003E00D4B0E4C236000BF00BF064BF0
:101690005B68C3F303130C4CE15C094B1B68CB4044
:1016A000074C236010BD00000010024000200240E3
:1016B0000000FFF8FFFFF6FE08ED00E000127A00E0
:1016C0000801002000093D000C01002000B587B092
:1016D00001214FF4017005F05DFC4FF4004005F06E
:1016E000BDFB0420ADF8040000208DF8070001A91F
:1016F000234805F02DF9234804F0B2FD00200290A4
:101700008DF80C008DF80D004FF46020049000203F
:10171000059001208DF8180002A91A4804F0C7FDB1
:101720000121184804F0EFFD164804F00EFE00BF3A
:10173000144804F00FFE0028FAD1124804F014FEF9
:1017400000BF104804F015FE0028FAD107B000BD14
:1017500010B504460723012221460A4804F03FFE43
:101760000121084804F00FFE00BF0221054804F0E3
:101770007BFF0028F9D0034804F098FE10BD00005C
:10178000000801400024014038B50446FB4890F8A9
:101790002400C0B114B10220009001E000200090AC
:1017A000F64A1268D17BF54A526810786B460122DE
:1017B00003F007F810B14FF0FF3038BD9DF800106E
:1017C000EE48417423E0ED48807A10B94FF0FF30C5
:1017D000F3E724B1E948407C08B10020EDE714B1FB
:1017E0000120009001E000200090E44A1268D17BC3
:1017F000E24A526810786B46012202F0E2FF10B113
:101800004FF0FF30D9E79DF80010DC48417400200C
:10181000D3E738B5002419E0D8480068C07AA04260
:1018200004D0D6480068407DA04200D10CE0D349E6
:10183000496808786B460122214603F025F810B16B
:101840004FF0FF3038BD00BF601CC4B2CB484068C9
:101850000079A042E0DC0020F4E770B504460D46B4
:10186000C6480068C07AA04204D0C4480068407DE1
:10187000A04202D14FF0FF3070BDC04840680079EF
:10188000A04202DC4FF0FF30F6E7BC494968087817
:101890002B460122214602F0F7FFEDE738B504465A
:1018A000B64890F82300A04201D1002038BD14B101
:1018B0003020009001E000200090B048807C20B1F2
:1018C0009DF8000040F002000090AC4890F8220023
:1018D00020B19DF8000040F080000090A74A1268F7
:1018E000117DA64A526810786B46012202F069FF0A
:1018F00010B14FF0FF30D9E7A04880F82340002016
:10190000D4E738B5044604F0700010B1012000900F
:1019100005E014B10020009001E040200090974ABB
:101920001268917C954A526810786B46012202F049
:1019300048FF20B1002191488172481E38BD9DF8B2
:10194000000020F040018D4801730020009004F059
:10195000400020B99DF8000040F00400009004F021
:10196000200020B99DF8000040F00200009004F033
:10197000100020B99DF8000040F00100009004F034
:10198000080020B99DF8000040F0380000907B4A24
:101990001268D17C794A526810786B46012202F0B5
:1019A00010FF20B1002175488172481EC6E724B19E
:1019B000082C02D00020FFF771FF704884720021CC
:1019C0000175322006F099FC0020B7E738B50446CF
:1019D0006A48807CA04201D1002038BD002C46D04E
:1019E000664A12681179654A526810786B4601227E
:1019F00002F04AFF10B14FF0FF30EEE79DF8000013
:101A000020F0200000905D4A126811795B4A52680C
:101A100010786B46012202F0D4FE10B14FF0FF3077
:101A2000DBE7032006F069FC02200090534890F8A1
:101A3000220020B19DF8000040F0800000904F4847
:101A400090F8230020B19DF8000040F03000009095
:101A50004A4A1268117D494A526810786B46012241
:101A600002F0AFFE002851D04FF0FF30B5E7434AF7
:101A700012681179414A526810786B46012202F0CF
:101A800003FF10B14FF0FF30A7E73C48807A00F029
:101A9000010028B19DF8000040F02000009004E013
:101AA0009DF8000020F020000090344A126811795F
:101AB000324A526810786B46012202F082FE10B161
:101AC0004FF0FF3089E7032006F017FC2B4890F811
:101AD000220010B18020009001E0002000902748F3
:101AE00090F8230020B19DF8000040F030000090F5
:101AF000224A1268117D214A526810786B460122F1
:101B000002F05FFE10B14FF0FF3066E71B488474AF
:101B1000002062E708B51948807A10B94FF0FF300D
:101B200008BD00200090154A1268D17B134A526804
:101B300010786B46012202F044FE10B14FF0FF30E6
:101B4000EEE70E4A126851790C4A526810786B46DB
:101B5000012202F036FE10B14FF0FF30E0E7074AF5
:101B600012681179054A526810786B46012202F01A
:101B700028FE28B14FF0FF30D2E700001C01002002
:101B8000F74890F82400002850D00C200090F44A28
:101B900012681179F24A526810786B46012202F0FD
:101BA00010FE10B14FF0FF30BAE7C0200090EC48B3
:101BB000807A00F0010020B19DF8000040F0200084
:101BC0000090E74A12681179E54A526810786B462E
:101BD000012202F0F6FD10B14FF0FF30A0E7E0481F
:101BE000407C10B10220009001E000200090DC4A0F
:101BF0001268D17BDA4A526810786B46012202F0F3
:101C0000E0FD10B14FF0FF308AE700200090D44A89
:101C100012685179D24A526810786B46012202F05C
:101C2000D0FD002852D04FF0FF3079E7042000901B
:101C3000CB4A12681179CA4A526810786B46012261
:101C400002F0BFFD10B14FF0FF3069E7C448807C5F
:101C500020B9C348807A00F0010010B940200090FC
:101C600001E060200090BE4A12681179BC4A5268B7
:101C700010786B46012202F0A4FD10B14FF0FF3046
:101C80004EE7B748407C10B10120009001E00020F1
:101C90000090B34A1268D17BB14A526810786B4603
:101CA000012202F08EFD10B14FF0FF3038E7AC4A50
:101CB00012685179AA4A52681078A94B1033012250
:101CC00002F07FFD10B14FF0FF3029E7002027E739
:101CD00070B50446002624F00104A14890F82400C1
:101CE00008B1002070BD9E48807A10B94FF0FF30D7
:101CF000F8E79B48057C807A20409949087408469B
:101D0000007CA04202D04FF0FF3600E0002614B95C
:101D10009348007D18B10120FFF736FD02E0002056
:101D2000FFF732FD3CB1FFF7F5FE20B18C4805749A
:101D30004FF0FF30D6E73046D4E738B50446884840
:101D4000807A10B94FF0FF3038BDBC2C02DB012087
:101D5000009015E0622C02DB0220009010E02A2C9B
:101D600002DB032000900BE0142C02DB0420009027
:101D700006E00A2C02DB0520009001E0062000901E
:101D80007748C07A9DF80010884201D10020DBE737
:101D9000734A12689178724A526810786B46012231
:101DA00002F00FFD10B14FF0FF30CDE79DF80010AD
:101DB0006B48C1720020C7E738B50446282C02DD05
:101DC0004FF0FF3038BDDCB90020FFF767FD002081
:101DD0008DF8000007208DF80100614A1268917C9F
:101DE0005F4A526810786B46022202F0EAFC10B19A
:101DF0004FF0FF30E6E70021594801750020E1E788
:101E00000120FFF74BFD20208DF80000012C06D1AA
:101E100000208DF801000520FFF78FFF17E0052C4B
:101E200006DC01208DF801000520FFF786FF0EE09B
:101E3000142C06DC02208DF801000A20FFF77DFF3C
:101E400005E003208DF801001420FFF776FF9DF8D0
:101E50000100072101EB8010C0B28DF80100404A5B
:101E60001268917C3E4A526810786B46022202F05A
:101E7000A8FC10B14FF0FF30A4E708213848817268
:101E800000210173012101750020FFF721FF0020CF
:101E900098E738B504463248807A10B94FF0FF30E1
:101EA00038BD2F4890F8240010B14FF0FF30F7E70D
:101EB0002B48007D50B134B1282C04DCE0B2FFF790
:101EC0007BFF0020ECE70020FFF776FF042C01DA0F
:101ED000042404E0B4F57A7F01DD4FF47A744FF402
:101EE0007A7090FBF4F0401EC0B200901C4A126859
:101EF00051781B4A526810786B46012202F061FC4F
:101F000010B14FF0FF30CBE79DF80000401C4FF4BC
:101F10007A7191FBF0F081B21148C1810146C98903
:101F20004810FFF70AFF0020BAE738B504460C480E
:101F3000807A10B94FF0FF3038BD022C06D0042C47
:101F400007D0082C08D0102C0FD10BE000200090F7
:101F50000EE0082000900BE01020009008E0000048
:101F60001C0100201820009002E04FF0FF30E3E752
:101F700000BFF648407A9DF80010B0EBE10F01D1A8
:101F80000020D9E7F14A1268D179F04A52681078F6
:101F90006B46012202F015FC10B14FF0FF30CBE789
:101FA0009DF80000C110E94841720020C4E738B52F
:101FB0000446E648807A10B94FF0FF3038BDFA2C5D
:101FC00009D0B4F5FA7F09D0B4F57A7F09D0B4F519
:101FD000FA6F0CD108E0002000900BE00820009080
:101FE00008E01020009005E01820009002E04FF07B
:101FF000FF30E3E700BFD548007A9DF80010B0EB52
:10200000E10F01D10020D9E7D04A12689179CF4A77
:10201000526810786B46012202F0D3FB10B14FF0EA
:10202000FF30CBE79DF80000C010C84908720020BF
:10203000C4E71CB580208DF80000C44A1268917C6A
:10204000C24A526810786B46012202F0BAFB10B106
:102050004FF0FF301CBD642006F04FF900208DF8D2
:102060000000BA4A1268917CB84A526810786B46F0
:10207000012202F0A6FB10B14FF0FF30EAE7642026
:1020800006F03BF9B14A1268917DB04A5268107867
:102090006B46062202F0F8FB10B14FF0FF30D9E793
:1020A0009DF80500C007400F9DF8031001F00101E5
:1020B00040EA41009DF8011001F0010140EA0104ED
:1020C00094B1012C03D10121A048C17431E0022C4C
:1020D00003D100219D48C1742BE021469CA006F04D
:1020E00069FD4FF0FF30B5E7984A1268D178974AFA
:1020F000526810786B46012202F0C6FB10B14FF017
:10210000FF30A7E79DF8000000F00F042CB99A48B3
:1021100006F050FD4FF0FF309CE7042C06D197A04D
:1021200006F048FD01218948C17402E0002187487A
:10213000C174FF2185488172FF2084490872FF2104
:1021400082484172C1724FF6FF71C181FF21017453
:1021500081740121017380F82210002180F823107E
:10216000417501751630016041608160163880F854
:10217000241080F82510C1844FF4FA60FFF717FF90
:1021800010B14FF0FF3065E70220FFF7CEFE10B12F
:102190004FF0FF305EE72A20FFF7CFFD10B14FF080
:1021A000FF3057E73220FFF774FE10B14FF0FF30D9
:1021B00050E70020FFF78CFD10B14FF0FF3049E7EA
:1021C0000020FFF703FC10B14FF0FF3042E7002082
:1021D000FFF797FB00203DE770477CB504460D46AE
:1021E0005A48807A00F0700010B94FF0FF307CBD83
:1021F000564A1268117B554A526810786B4606227F
:1022000002F042FB10B14FF0FF30F0E79DF8010003
:102210009DF8001040EA012000B220809DF80300E4
:102220009DF8021040EA012000B260809DF8050090
:102230009DF8041040EA012000B2A08015B12846A4
:10224000FFF7CAFF0020D2E77CB504460D463F48A1
:10225000807A00F0080010B94FF0FF307CBD3B4A97
:102260001268517B394A526810786B46062202F098
:102270000BFB10B14FF0FF30F0E79DF801009DF827
:10228000001040EA012000B220809DF803009DF874
:10229000021040EA012000B260809DF805009DF820
:1022A000041040EA012000B2A08015B12846FFF7D3
:1022B00093FF0020D2E72DE9FE4F05460C46234848
:1022C000807A18B94FF0FF30BDE8FE8F1F4A1268C0
:1022D000917B1E4A5268107802AB022202F0D4FAB7
:1022E00010B14FF0FF30EFE79DF809009DF808109E
:1022F00040EA012006B214B12046FFF76DFF1349F2
:102300004968C88808F0F2F9104901904968B1F9A4
:10231000080008F0D3F98346304608F0CFF9594653
:10232000009008F033FB8246019908F095F8814649
:102330001A4908F023F880464FF08F4108F01EFA42
:10234000074608F07FF928600020BDE71C01002047
:10235000556E737570706F7274656420736F6674F8
:10236000776172652070726F647563742072657630
:102370002025642E0A00000008C3000848616C662E
:102380002073656E736974697669747920706172FF
:102390007420666F756E642E0D0A000000000C42FA
:1023A00010B588B004461CB94FF0FF3008B010BD1E
:1023B000206828B9606818B9A06808B90020F5E756
:1023C000FA494968087806AB0322114602F05CFA24
:1023D00010B14FF0FF30E9E79DF81800082101EB3C
:1023E000201000F00F00ADF800009DF8190001EB7F
:1023F000201000F00F00ADF802009DF81A0001EB6C
:10240000201000F00F00ADF8040020684100BDF975
:102410000000403091FBF0F000B2ADF810006068B1
:102420004100BDF90200403091FBF0F000B2ADF880
:102430001200A0684100BDF90400403091FBF0F0AB
:1024400000B2ADF81400D9494968087806AB0622F5
:10245000114602F019FA10B14FF0FF30A6E79DF8CF
:1024600019009DF8181040EA012000B2ADF80800EC
:102470009DF81B009DF81A1040EA012000B2ADF84B
:102480000A009DF81D009DF81C1040EA012000B2D2
:10249000ADF80C00BDF81000BDF80810084400B2FB
:1024A000ADF81000BDF81200BDF80A10084400B2E3
:1024B000ADF81200BDF81400BDF80C10084400B2CD
:1024C000ADF81400BDF81000000A8DF81800BDF832
:1024D0001000C0B28DF81900BDF81200000A8DF886
:1024E0001A00BDF81200C0B28DF81B00BDF8140030
:1024F000000A8DF81C00BDF81400C0B28DF81D0054
:10250000AA494968087806AB0622114602F059F933
:1025100010B14FF0FF3049E7002047E70146A348DC
:10252000007A30B1012807D0022809D003280FD142
:102530000AE0FA2008800EE04FF4FA7008800AE002
:102540004FF47A70088006E04FF4FA60088002E0E9
:102550000020088000BF00BF00207047014693485C
:10256000407A30B1012807D0022808D003280CD1C6
:1025700008E0022008700BE00420087008E0082042
:10258000087005E01020087002E04FF0FF3070473F
:1025900000BF8648C07C18B108784006000E08705D
:1025A0000020F4E701468148C07A082817D2DFE806
:1025B00000F01704070A0D101318BC20088013E060
:1025C0006220088010E02A2008800DE01420088096
:1025D0000AE00A20088007E00520088004E000BF28
:1025E00000BF0020088000BF00BF002070470146E8
:1025F0006E4890F8240010B14FF0FF3070476B48E0
:10260000C08908800020F9E7014600200880401EAC
:10261000704701464FF0FF30704701466348007A2B
:1026200030B1012807D0022808D003280CD108E0D7
:102630005F4808600BE05F48086008E05E4808609B
:1026400005E05E48086002E04FF0FF30704700BFD1
:102650000020FBE701465548407A30B1012808D0F8
:1026600002280AD0032810D10BE04FF480400880E4
:102670000EE041F69C7008800AE04FF4805008801C
:1026800006E04FF40060088002E04FF0FF30704732
:1026900000BF4648C07C10B1088840100880002068
:1026A000F5E701464148007C08700020704701466C
:1026B0003E48807A10B10120087001E000200870C7
:1026C0000020704738B504463848807A10B94FF07A
:1026D000FF3038BD354A1268117C344A5268107890
:1026E0006B46022202F0D0F810B14FF0FF30F0E755
:1026F0009DF801009DF8001040EA012000B2208002
:102700000020E6E72DE9FE4F0746884692461D4623
:10271000DDF830B000260024244890F8240010B1E1
:10272000601EBDE8FE8F002028702048807A10B916
:102730004FF0FF30F5E71D48007C10B94FF0FF3037
:10274000EFE71A48007C00F0400008B1B01CC6B2A8
:102750001648007C00F0200008B1B01CC6B2134837
:10276000007C00F0100008B1B01CC6B20F48007C1D
:1027700000F0080008B1B01DC6B20C4A1268917A88
:102780000A4A526810786B46022202F07DF810B1B6
:102790004FF0FF30C5E79DF801009DF8001040EABA
:1027A0000129B1450CDA0020BBE700001C01002024
:1027B0000000034300008342333303423333834139
:1027C000FC4840684088B9EB600F17DDF94A126891
:1027D000517CF84A526810786B46012202F054F896
:1027E00010B14FF0FF309CE79DF8000000F01000A2
:1027F00020B1FFF78FF96FF0010092E75046FFF725
:10280000EBFCEC4A1268D17AEA4A526810786B46BF
:10281000324602F039F810B14FF0FF3081E799FBF2
:10282000F6F0401E8BF8000000202870B4422AD039
:10283000E048007C00F0080028B3601C1DF8000090
:102840001DF8041040EA012000B2A8F80000E01CC6
:102850001DF80010A01C1DF8000041EA002000B285
:10286000A8F80200601D1DF80010201D1DF80000D2
:1028700041EA002000B2A8F80400287840F00800DF
:102880002870A01D84B2B44213D0CA48007C00F066
:10289000400070B1601C1DF800001DF8041040EAF3
:1028A000012000B23880287840F040002870A01C39
:1028B00084B2B44213D0BF48007C00F0200070B155
:1028C000601C1DF800001DF8041040EA012000B251
:1028D0007880287840F020002870A01C84B2B44290
:1028E00013D0B448007C00F0100070B1601C1DF8DB
:1028F00000001DF8041040EA012000B2B8802878DA
:1029000040F010002870A01C84B2002009E7F8B540
:1029100004460F461646A74890F8240010B94FF019
:10292000FF30F8BDA348807A10B94FF0FF30F8E7C8
:10293000A04A1268917A9F4A526810786B46022228
:1029400001F0A2FF10B14FF0FF30EAE79DF801005F
:102950009DF8001040EA0125A54203DA00203070FE
:10296000401EDEE7934840684088B5EB600F17DDF6
:10297000904A1268517C8F4A526810786B46012247
:1029800001F082FF10B14FF0FF30CAE79DF8000060
:1029900000F0100020B1FFF7BDF86FF00100C0E7B4
:1029A000E2B2844B1B68D97A824B5B6818783B464D
:1029B00001F06AFF10B14FF0FF30B2E795FBF4F081
:1029C000401E30700020ACE701467A4880F82210A3
:1029D000002070477CB5054676494968087801AB08
:1029E00004220D2101F050FF08B107207CBD9DF8A5
:1029F0000700C0F301109DF8041001F0E00140EA67
:102A0000E1008DF800009DF80700C0F381009DF8FB
:102A1000051001F0E00140EAE1008DF801009DF8A9
:102A2000070000F003009DF8061001F0E00140EA05
:102A3000E1008DF8020000241CE01DF8040018B924
:102A4000002045F8240013E05B4845F8240006E028
:102A500055F82400594907F091FE45F824001DF867
:102A60000400401EC0B20DF804000028F0D100BFE1
:102A7000601CC4B2032CE0DB0020B7E72DE9FE4F59
:102A800006460F4600256846FFF7A4FF002442E0F3
:102A900056F8240057F82410A0EB010ABAF1000FF1
:102AA00001DB514601E0CAF10001084607F006FECD
:102AB00083464FF08F4107F0CFFC80465DF824003D
:102AC000002107F08BFD16D05DF82410404607F07A
:102AD000C3FC82464FF07E5107F058FF814629F033
:102AE000004A3748416A504607F014FF12D20120CD
:102AF000A04005430EE03248C169404607F00AFE97
:102B000005D32F48016A404607F004FF02D2012096
:102B1000A0400543641C032CBADB2846BDE8FE8FA9
:102B20002DE9FC5F06460F460025224949680878D2
:102B300001AB03220D2101F0A7FE10B10720BDE873
:102B4000FC9F9DF8040000F01F008DF804009DF824
:102B5000050000F01F008DF805009DF8060000F04C
:102B60001F008DF80600002462E056F8240057F894
:102B70002410A0EB010BBBF1000F01DB594601E073
:102B8000CBF10001084607F099FD4FF08F4100900E
:102B900007F062FC814601A8005DC0B308490868DF
:102BA00007F0A4FD83465946064807F055FC8046C9
:102BB0000FE000001C0100207B14AE3E1D5A843F34
:102BC00090AB000800B04C45FE49404607F0D6FDEA
:102BD000804601A8005D401EC0B201A9085500282A
:102BE000F2D14146484607F037FC83464FF07E510C
:102BF00007F0CCFE82462AF0004BF3488169584624
:102C000007F088FE13D20120A04005430FE0FFE744
:102C1000ED480169484607F07DFD05D3EA48416962
:102C2000484607F077FE02D20120A0400543641C0D
:102C3000032C9ADB284682E72DE9F04F87B0054642
:102C40000C46914601208DF8100000208DF81100EF
:102C5000DE4A1268917CDD4A5268107804AB022289
:102C600001F0AFFD20B14FF0FF3007B0BDE8F08FAD
:102C7000C82005F042FB00208DF81000D34A1268EE
:102C8000D17BD24A5268107804AB012201F099FD41
:102C900010B14FF0FF30E8E7CC4A12685179CB4AC7
:102CA0005268107804AB012201F08BFD10B14FF097
:102CB000FF30DAE7C54A1268917CC44A526810783E
:102CC00004AB012201F07DFD10B14FF0FF30CCE7E5
:102CD000BE4A1268D17DBD4A5268107804AB012209
:102CE00001F06FFD10B14FF0FF30BEE7B74A126838
:102CF0001179B64A5268107804AB012201F061FDE7
:102D000010B14FF0FF30B0E70C208DF81000AF4A43
:102D100012681179AD4A5268107804AB012201F0B3
:102D200050FD10B14FF0FF309FE70F2005F0E5FA9E
:102D3000A648806A407A8DF81000A44A12689178FB
:102D4000A24A5268107804AB012201F03AFD10B19A
:102D50004FF0FF3089E79D48806A007A8DF81000B7
:102D60009A4A12685178994A5268107804AB012245
:102D700001F027FD10B14FF0FF3076E7B9F1000FF9
:102D800007D09248806A807A40F0E0008DF8100009
:102D900004E08E48806A807A8DF810008B4A1268B1
:102DA00091798A4A5268107804AB012201F009FD3A
:102DB00010B14FF0FF3058E7B9F1000F07D083484A
:102DC000806AC07A40F0E0008DF8100003E07E4891
:102DD000C07A8DF810007D4A1268D1797B4A52681A
:102DE000107804AB012201F0ECFC10B14FF0FF3081
:102DF0003BE7B9F1000F02D0C82005F07EFA402071
:102E00008DF81000714A12681179704A5268107872
:102E100004AB012201F0D5FC10B14FF0FF3024E7E4
:102E200078208DF81000694A12685179674A526813
:102E3000107804AB012201F0C4FC10B14FF0FF3058
:102E400013E76149888905F058FA00208DF81000D1
:102E50005E4A126851795D4A5268107804AB0122CB
:102E600001F0AFFC10B14FF0FF30FEE6574A126898
:102E7000917A564A5268107804AB022201F004FDA0
:102E800010B14FF0FF30F0E69DF811009DF81010E2
:102E900040EA012B0C209BFBF0F0C6B20020A8609A
:102EA00068602860A06060602060824665E0474AF4
:102EB0001268D17A454A5268107804AB0C2201F0AE
:102EC000E3FC10B14FF0FF30CFE69DF811009DF804
:102ED000101040EA012000B2ADF808009DF8130080
:102EE0009DF8121040EA012000B2ADF80A009DF8EA
:102EF00015009DF8141040EA012000B2ADF80C0056
:102F0000BDF90810206808442060BDF90A10606807
:102F100008446060BDF90C10A0680844A0609DF8EA
:102F200017009DF8161040EA012000B2ADF800002D
:102F30009DF819009DF8181040EA012000B2ADF884
:102F400002009DF81B009DF81A1040EA012000B213
:102F5000ADF80400BDF90010286808442860BDF9E8
:102F60000210686808446860BDF90410A868084445
:102F7000A8600AF1010000F0FF0AB24597DB124891
:102F8000D0F800C02868C117090441EA10410704BD
:102F900062460023384605F0E8FD32460023CDE9BD
:102FA000020105F0E2FD28600748D0F800C068681B
:102FB000C117090441EA104107046246002338465C
:102FC00006E0000054E3853F90AB00081C010020A0
:102FD00005F0CBFD32460023CDE9020105F0C5FD29
:102FE0006860FE48D0F800C0A868C117090441EA2B
:102FF0001041070462460023384605F0B6FD32460C
:103000000023CDE9020105F0B0FDA860F348D0F837
:1030100004C02168C817000440EA11480F04624642
:1030200000233846414605F0A0FD32460023CDE995
:10303000020105F09AFD2060E848D0F804C06068FD
:10304000C117090441EA10410704624600233846CB
:1030500005F08BFD32460023CDE9020105F085FD28
:103060006060DE48D0F804C0A068C117090441EAD6
:103070001041070462460023384605F076FD3246CB
:103080000023CDE9020105F070FDA060A0680028D2
:1030900004DDA068A0F58030A06003E0A06800F522
:1030A0008030A0600020E0E538B50446CC4890F8B8
:1030B0002400A04201D1002038BD24B3C84890F8B4
:1030C000250010B94FF0FF30F6E70020FEF75CFB5B
:1030D0000020FEF77BFCC249C88CFEF7DAFE002018
:1030E0000090BF49496808786B460122232101F00E
:1030F00068FB0121BA4880F824100120FEF744FB48
:10310000FEF708FD13E00020FEF73EFBB448007C0C
:103110000090B349496808786B460122232101F0E9
:1031200050FB0021AE4880F82410FEF7F3FC00208D
:10313000C2E72DE9F04F8DB083460F4602200C9078
:10314000A74890F8240020B10020FFF7ADFF01262A
:1031500000E0002603A8FFF7E1F905A8FFF7FEF954
:1031600001A8FFF71FFA02A8FFF741FA9C4890F860
:103170000AA004A8FFF795FA002407E000223946C8
:103180005846FFF759FD00B902E0641C022CF5DB3C
:1031900000BF022C01D1002528E0002407E0012215
:1031A00006A909A8FFF748FD00B902E0641C022C3B
:1031B000F5DB00BF022C01D1002517E006A9384637
:1031C000FFF75CFC00F0FF0809A95846FFF7A8FCD0
:1031D00000F0FF090025B9F1000F01D145F001050C
:1031E000B8F1000F01D145F0020500BFFF207C4976
:1031F0000872FF217A484172C1724FF6FF71C18196
:10320000FF218172017401210173BDF80C00FEF7EA
:10321000CEFE9DF81400FEF788FEBDF80400FEF710
:103220008CFDBDF80800FEF734FE5046FEF769FB42
:103230009DF81000FEF74CFD16B10120FFF734FF9A
:1032400028460DB0BDE8F08FF8B504460D46164689
:1032500016B94FF0FF30F8BD6148807A10B94FF0D1
:10326000FF30F8E720128DF80000E0B28DF8010081
:103270009DF8010028445A4949684989884202DD7D
:103280004FF0FF30E7E7564A1268117E544A526801
:1032900010786B46022201F094FA10B14FF0FF3023
:1032A000D9E7EAB24E4B1B68597D4D4B5B681878E5
:1032B000334601F086FA10B14FF0FF30CBE7002023
:1032C000C9E7F8B504460D46164616B94FF0FF306B
:1032D000F8BD4348807A10B94FF0FF30F8E720126C
:1032E0008DF80000E0B28DF801009DF8010028443F
:1032F0003B4949684989884202DD4FF0FF30E7E7E2
:10330000374A1268117E364A526810786B4602229C
:1033100001F057FA10B14FF0FF30D9E7EAB2304B65
:103320001B68597D2E4B5B681878334601F0ACFA68
:1033300010B14FF0FF30CBE70020C9E72DE9F04393
:1033400085B005460E4690469946254890F82500DA
:1033500020B14FF0FF3005B0BDE8F08316B94FF053
:10336000FF30F8E7002423E0281B102801DD10209F
:1033700000E0281B87B2321939462046FFF764FF68
:1033800010B14FF0FF30E6E701AA39462046FFF7BB
:1033900098FF10B14FF0FF30DDE730193A4601A930
:1033A00005F084FC10B16FF00100D4E7E01984B29D
:1033B000AC42D9DB4FEA28208DF8000008F0FF006E
:1033C0008DF80100064A1268917E054A526810780D
:1033D0006B46022201F0F5F938B103E090AB00082A
:1033E0001C0100204FF0FF30B5E701218A4880F82A
:1033F0002510A0F826900020ADE70146864890F8F9
:10340000240008700020704702464FF0FF307047DC
:1034100001464FF0FF307047F8B505460F46144699
:10342000002C70D0B5F5FF5F01DDFF2605E0202DF3
:1034300001DA012601E0C5F3471607B90127282C58
:1034400002DD4FF0FF30F8BD7348407D28BB724865
:1034500090F8240038B10020FFF726FE01216E48C5
:1034600080F8201003E000216B4880F820106A48A3
:103470001630FFF753F868481830FFF76FF86648C2
:103480001A30FFF78FF864481C30FFF7B0F8624835
:10349000817A81771F30FFF704F90020FEF774F975
:1034A0000020FEF789FC00208DF800005A4A1268BF
:1034B0009178594A526810786B46012201F081F9DF
:1034C00010B14FF0FF30BEE740208DF80000524AA7
:1034D0001268D17B504A526810786B46012201F085
:1034E00070F900B165E08DF800608DF801704A4A0E
:1034F0001268117A484A526810786B46022201F02D
:1035000060F908B155E047E0052004F0F6FE4248B6
:10351000407A072101EBC000C0B28DF800003E4A9E
:103520001268D1793C4A526810786B46012201F04A
:1035300048F900B13DE020208DF80000012C03D1B6
:1035400000208DF801000EE0052C03DC01208DF831
:10355000010008E0142C03DC02208DF8010002E0D9
:1035600003208DF801009DF80100072101EB801078
:10357000C0B28DF80100284A1268917C264A526830
:1035800010786B46022201F01CF900B111E0012114
:1035900021484175002056E71F4A1632002103E0FA
:1035A000505C00B105E0491C0C29F9D34FF0FF3005
:1035B00049E7FF2018490872FF2117484172C1727C
:1035C0004FF6FF71C181FF218172017401210173E6
:1035D0000146887FFEF795F90F49C88AFEF7E7FC98
:1035E0000D49087EFEF7A1FC0B49488BFEF7A5FBB1
:1035F0000949888BFEF74DFC0749C87FFEF768FB39
:10360000054890F8200010B10120FFF74DFD002182
:1036100001484175002016E71C01002010B5C823A1
:103620004FF48062F74940F6F630FFF787FE10BD91
:1036300010B586B00446F4A000680390F3A00068BB
:103640000290F3A000680190F2A00068009004F0DE
:10365000030003A9085C8DF8140003A8C4F3C1019A
:10366000405C8DF8150003A8C4F38111405C8DF80F
:10367000160004F0030002A9085C8DF8100002A8EF
:10368000C4F3C101405C8DF8110002A8C4F381119C
:10369000405C8DF8120005AA032140F22640FFF796
:1036A000D3FD18B14FF0FF3006B010BD04AA0321BE
:1036B00040F22A40FFF7C8FD10B14FF0FF30F3E7AA
:1036C000019805900098049004F0040058B19DF80A
:1036D000140040F001008DF814009DF8100040F037
:1036E00001008DF8100004F0200058B19DF815007D
:1036F00040F001008DF815009DF8110040F0010028
:103700008DF8110004F4807058B19DF8160040F057
:1037100001008DF816009DF8120040F001008DF8B0
:10372000120005AA03214FF48860FFF78DFD10B148
:103730004FF0FF30B8E704AA032140F23140FFF711
:1037400083FD10B14FF0FF30AEE7B3480481002095
:10375000AAE71FB50446B048007A00F0030054F809
:1037600020000190AC48007A00F0040010B10198EC
:1037700040420190A848007AC0F3C10054F82000EC
:103780000290A548007A00F0200010B10298404253
:103790000290A148007AC0F3811054F820000390F1
:1037A0009D48008900F4807010B103984042039056
:1037B0009A49019880FB0101800F40EA8100019045
:1037C0009649029880FB0110820042EA91700290B3
:1037D0009249039880FB0110820042EA91700390A5
:1037E0000198000E8DF800000198000C8DF8010082
:1037F0000198000A8DF802000198C0B28DF803000C
:103800006A4604214FF47470FFF71EFD18B14FF0A3
:10381000FF3004B010BD0298000E8DF80000029831
:10382000000C8DF801000298000A8DF80200029841
:10383000C0B28DF803006A4604214FF47570FFF79B
:1038400003FD10B14FF0FF30E3E70398000E8DF851
:1038500000000398000C8DF801000398000A8DF811
:1038600002000398C0B28DF803006A4604214FF4A9
:103870007670FFF7E9FCCCE770B588B0064601A882
:10388000FEF7E8FEBDF804000021C90341EA5045F7
:10389000C4036148007A00F0030056F82000059048
:1038A0005D48007A00F0040010B105984042059090
:1038B0005948007AC0F3C10056F8200006905648D7
:1038C000007A00F0200010B106984042069052485D
:1038D000007AC0F3811056F8200007904E48008906
:1038E00000F4807010B10798404207900598C11706
:1038F000A0FB042301FB043100FB0510810041EA19
:10390000927005900698C117A0FB042301FB0431B7
:1039100000FB0510810041EA927006900798C117DC
:10392000A0FB042301FB043100FB0510810041EAE8
:10393000927007900598000E8DF808000598000C0D
:103940008DF809000598000A8DF80A000598C0B2A4
:103950008DF80B000698000E8DF80C000698000CF0
:103960008DF80D000698000A8DF80E000698C0B27A
:103970008DF80F000798000E8DF810000798000CC6
:103980008DF811000798000A8DF812000798C0B250
:103990008DF8130002AA0C214FF42570FFF754FC98
:1039A00008B070BD30B585B004461DA207CA02AB91
:1039B00007C3C82C03DD4FF0FF3005B030BDC82071
:1039C00090FBF4F0401E85B2280A8DF80000E8B2A2
:1039D0008DF801006A46022140F21620FFF734FC00
:1039E00010B14FF0FF30E8E702AA0C2140F6C120E9
:1039F000FFF72AFC10B14FF0FF30DEE70648848164
:103A00000020DAE7B8AB00084CCD6C000CC92C00E4
:103A10003656760026466600E801002009E3CA0211
:103A2000FEF2ABC4AAF1DFDFBBAFDFDF0146FC482B
:103A300080890880002070472DE9FC4706460F4624
:103A400006F0070010B1B7F5C86F03DD4FF0FF3087
:103A5000BDE8FC87384606F049FE8146F14906F08C
:103A6000FBFC80466846FEF779FD9DF800000228C1
:103A700006D0042816D0082826D0102848D135E0D2
:103A80004FF08D41404606F079FE814606F0F6FD86
:103A900084B2E549404606F071FE814606F0EEFD2F
:103AA00085B238E04FF08C41404606F067FE814613
:103AB00006F0E4FD84B2DD49404606F05FFE814633
:103AC00006F0DCFD85B226E04FF08B41404606F063
:103AD00055FE814606F0D2FD84B2D549404606F037
:103AE0004DFE814606F0CAFD85B214E04FF08A41D2
:103AF000404606F043FE814606F0C0FD84B2CD4943
:103B0000404606F03BFE814606F0B8FD85B202E075
:103B10004FF0FF309CE700BF20128DF80400E0B2A8
:103B20008DF8050028128DF80600E8B28DF8070020
:103B300006F00100A0B101AA02214FF4EA70FFF7DC
:103B400083FB10B14FF0FF3082E70DF10602022136
:103B50004FF49270FFF778FB10B14FF0FF3077E72A
:103B600006F00200A0B101AA02214FF4EC70FFF7A9
:103B70006BFB10B14FF0FF306AE70DF10602022136
:103B80004FF49470FFF760FB10B14FF0FF305FE728
:103B900006F00400A0B101AA02214FF4EE70FFF775
:103BA00053FB10B14FF0FF3052E70DF10602022136
:103BB0004FF49670FFF748FB10B14FF0FF3047E726
:103BC000002045E738B504460020009004F00100CD
:103BD00020B19DF8000040F03000009004F0020099
:103BE00020B19DF8000040F00C00009004F00400AB
:103BF00020B19DF8000040F0030000906A460121CA
:103C00004FF4A470FFF720FB38BD38B50446012CF3
:103C100001DA012402E0042C00DD0424601EC0B29D
:103C200000906A46012140F24F10FFF70DFB38BDAE
:103C300038B50446052094FBF0F085B228128DF8C3
:103C40000000E8B28DF801006A4602214FF4EF70DF
:103C5000FFF7FAFA38BD38B50446052094FBF0F0BA
:103C600085B228128DF80000E8B28DF801006A468E
:103C700002214FF4ED70FFF7E7FA38BDF8B50546BD
:103C80000E464FF47A7095FBF0F000FB06F4200E20
:103C90008DF80000200C8DF80100200A8DF802003C
:103CA000E0B28DF803006A4604214FF4AE70FFF7CE
:103CB000CBFAF8BD38B50446052094FBF0F084B289
:103CC00020128DF80000E0B28DF801006A46022152
:103CD0004FF4AD70FFF7B8FA38BD38B5044605208B
:103CE00094FBF0F084B220128DF80000E0B28DF861
:103CF00001006A4602214FF4AC70FFF7A5FA38BD07
:103D000038B5044614B94FF0FF3038BD6A46042177
:103D10004FF45870FFF7D5FA10B14FF0FF30F4E7C9
:103D20009DF8000000069DF8011040EA01409DF852
:103D3000021040EA01209DF8031008432060002093
:103D4000E3E738B50446200E8DF80000200C8DF80E
:103D50000100200A8DF80200E0B28DF803006A46E7
:103D600004214FF45870FFF76FFA38BD38B5044698
:103D700014B94FF0FF3038BD6A4604214FF471701A
:103D8000FFF79FFA10B14FF0FF30F4E79DF8000005
:103D900000069DF8011040EA01409DF8021040EA3B
:103DA00001209DF80310084300EB80008000206094
:103DB0000020E0E738B504461420B4FBF0F4200EF0
:103DC0008DF80000200C8DF80100200A8DF802000B
:103DD000E0B28DF803006A4604214FF47170FFF7DA
:103DE00033FA38BD38B5044664B120208DF80000A0
:103DF00028208DF8010030208DF8020038208DF841
:103E0000030004E0A3220421684604F07BFF6A4615
:103E1000042140F69E20FFF717FAFDF77BFE38BD20
:103E2000E801002000004843000040460000C04573
:103E3000000040450000C04438B5044664B1C020CD
:103E40008DF80000C2208DF80100C4208DF802001A
:103E5000C6208DF8030004E08B220421684604F09C
:103E600051FF6A46042140F69820FFF7EDF9FDF76F
:103E700051FE38BD3EB504466CB1FDA1D1E900202C
:103E80008968CDE9002002916A4609214FF49760C4
:103E9000FFF7DAF93EBDF9A2D2E900109268CDE948
:103EA000010200916A4609214FF49760FFF7CCF9AF
:103EB000F0E73EB5044602208DF80000CA208DF8D8
:103EC0000100E3208DF8020009208DF803006A4606
:103ED00004216820FFF7B8F9A3208DF8000004F052
:103EE000400048B1C0208DF80100C8208DF80200C4
:103EF000C2208DF8030006E0A3208DF801008DF8A4
:103F000002008DF8030004F4C07048B1C4208DF89D
:103F10000400CC208DF80500C6208DF8060006E0D0
:103F2000A3208DF804008DF805008DF80600A3206D
:103F30008DF807008DF808008DF809006A460A21FF
:103F400040F6A720FFF780F904F0030018B1202005
:103F50008DF8000002E0D8208DF800006A460121AB
:103F600040F6B620FFF770F904F0200018B10120E8
:103F7000FFF780FF02E00020FFF77CFF04F4C07031
:103F800008B304F4807060B1B2208DF800008B207B
:103F90008DF80100B6208DF802009B208DF80300FB
:103FA0000BE0B0208DF8000080208DF80100B420D7
:103FB0008DF8020090208DF803006A46042140F637
:103FC000A220FFF741F904F0010020B3F8208DF89A
:103FD00000006A4601214FF40B60FFF735F9FA2122
:103FE0000720FFF729FD0720FFF7ECFD0120FFF771
:103FF0000CFE6420FFF71CFE4FF4FA70FFF72BFE57
:10400000C821A148FFF73AFE2820FFF753FE0A20F7
:10401000FFF763FE08E0D8208DF800006A46012112
:104020004FF40B60FFF710F904F0020018B1D9202B
:104030008DF8000002E0D8208DF800006A460121CA
:1040400040F23D70FFF700F904F0040018B10120C0
:10405000FFF7F2FE02E00020FFF7EEFE04F0100092
:1040600018B10120FFF7BEFE02E00020FFF7BAFE04
:1040700044F0080085494881FDF74CFD0020834944
:10408000887304F0400018B10846807B801D887357
:1040900004F4C07020B17D48807B801D7B4988730B
:1040A00004F0140020B17948807B10307749887380
:1040B00004F0030020B17548807B001D73498873AC
:1040C00000203EBD014671484089088000207047AD
:1040D0002DE9F0410446E07800F0C006E07800F0F9
:1040E0003F05607800F0010098B1EF102846E9170D
:1040F00005EB5171C910A5EBC101491C01F0FF0886
:104100006248006820B161484146026838469047DD
:1041100000BF607800F0080030B15C48406818B11A
:10412000B0115A4A516888470020BDE8F08110B5A7
:1041300086B0044656A207CA03AB07C357A207CAF4
:104140008DE80700012C09D0022C0ED103AA0B2107
:1041500040F68220FFF778F806B010BD6A460B21C2
:1041600040F68220FFF770F8F6E74FF0FF30F3E7F4
:104170002DE9F04F8DB00746884615469946DDE992
:10418000166B0024002030804049887B5A4605A9E0
:10419000FEF7BDFB18B1601E0DB0BDE8F08F3B48C7
:1041A000807A00F01400002861D09DF81400000609
:1041B0009DF8151040EA01409DF8161040EA0120D4
:1041C0009DF81710084328609DF8180000069DF818
:1041D000191040EA01409DF81A1040EA01209DF8AC
:1041E0001B10084368609DF81C0000069DF81D1018
:1041F00040EA01409DF81E1040EA01209DF81F1082
:104200000843A8609DF8200000069DF8211040EAB0
:1042100001409DF8221040EA01209DF82310084338
:10422000E86004F11000C4B22868001401906868C6
:1042300000140290A86800140390E8680014049029
:1042400001984043029901FB0100039901FB010021
:10425000049901FB010ABAF1706F02DBBAF1885FC1
:1042600022DDFDF757FC00203080401E94E721E05E
:10427000B8AAB38DB4980D355D000000B8AAAAAAFB
:10428000B088C3C5C700000009E3CA02E8010020E6
:10429000D8B1B9F38BA391B609B4D900DAB1B9F3A7
:1042A0008BA391B6DAB4DA00B6F9000040F480705E
:1042B000308000BF3448807A00F0400020B305A968
:1042C000601C085C095D40EA012000B2A8F800000B
:1042D00005A9E01C095C05AAA01C105C41EA0020AD
:1042E00000B2A8F8020005A9601D095C201D105C41
:1042F00041EA002000B2A8F80400A01DC4B2B6F93B
:10430000000040F0080030801F48408900F4C07071
:1043100008B305A9601C085C095D40EA012000B2F1
:10432000388005A9E01C095C05AAA01C105C41EAC4
:10433000002000B2788005A9601D095C201D105C7A
:1043400041EA002000B2B880A01DC4B2B6F9000056
:1043500040F0700030800C48807A00F0030018B103
:1043600005A90819FFF7B4FE4846FDF735FF002000
:1043700012E70146044801600020704701460248E8
:104380004160002070470000E801002000B587B0C0
:104390000121084602F00BFE0121042002F0FAFD83
:1043A0000320ADF8000004208DF8030069465D4845
:1043B00002F0CEFA04A803F051FA0020ADF8100084
:1043C0004FF6FF70ADF814000020ADF81600ADF800
:1043D000120004A94FF0804002F014FF00231A4697
:1043E00003214FF0804003F01CFB01A803F049FAC1
:1043F0000A20ADF80C0001A9400703F096F901214D
:10440000880703F021FD01221146900703F071FA9D
:1044100000214FF0804003F0E5FC0121880703F004
:104420004DFA07B000BD00B587B00121042002F0AD
:10443000BEFD0121082002F0ADFDC020ADF8000056
:1044400004208DF803006946374802F081FA04A879
:1044500003F004FA0020ADF810004FF6FF70ADF83D
:1044600014000020ADF81600ADF8120004A92F4882
:1044700002F0C8FE00231A4603212C4803F0D1FAAB
:1044800001A803F0FEF90A20ADF80C0001A92748A5
:1044900003F04BF90121254803F0D6FC0122114617
:1044A000224803F026FA0021204803F09BFC01215A
:1044B0001E4803F003FA07B000BD0146022902D0EE
:1044C000042912D108E04FF08042928C10B20022F1
:1044D0004FF080439A840AE0144A2432128810B2C2
:1044E0000022124B24331A8001E0002000BF00BFDD
:1044F00070474FF08040008A4FF08040008A20F0E3
:1045000001004FF080410882704708481030008851
:1045100006481030008820F001000449103108805E
:104520007047000000080140000C014000080040F6
:104530001FB50121084602F02DFD0121042002F0E3
:1045400029FD4FF48050ADF80C0048208DF80F0085
:1045500003A9124802F0FCF90C21002002F00EFB26
:104560004FF48050019000208DF808000C208DF849
:10457000090001208DF80A0001A802F009F928209D
:104580008DF8000002208DF8010001208DF8020056
:104590008DF80300684601F0FAFD1FBD00080140D8
:1045A00008B50121082002F0F5FC4FF44070ADF889
:1045B000000010208DF8030003208DF802006946EA
:1045C000F94802F0C5F90120F8490860F849C1F836
:1045D000A40108BD10B5F448001D006820F0F000EB
:1045E000F149091D08600846006840F03000086085
:1045F0000120EE49091D0860ED48D0F8240108B9F2
:10460000002010BD0120E9490860022003F051FE9E
:104610000020E749C1F8A401E4487C38006808B1EB
:104620000020EEE7022003F044FE0020DF4908608E
:104630000120E6E710B5DC48001D006820F0F0001E
:10464000D949091D08600846006840F0300008603C
:104650000020D6490860D649C1F8A401022003F021
:1046600028FE0120D1490860D149C1F8A4010220E7
:1046700003F01FFE10BD10B50024CB48001D0068DC
:1046800020F0F000C849091D08600846006840F0A5
:10469000800008600120C549091D0860022003F060
:1046A00008FE0120C249C1F8A001022003F001FE6A
:1046B00009E0641C642C03DDFFF7BCFF002010BD83
:1046C000022003F0F6FDB9487C3800680028F0D1DC
:1046D000B64908600120F2E710B50020B349086030
:1046E000B148001D006820F0F000AF49091D0860C6
:1046F0000846006840F0300008600020AC49C1F86E
:10470000A401022003F0D5FD0120A8490860022081
:1047100003F0CFFD0020A649C1F8A00110BD10B5DF
:104720000020A2490860A048001D006820F0F000A9
:104730009D49091D08600846006840F03000086087
:1047400001209B49C1F8A401022003F0B2FD012021
:1047500096490860022003F0ACFD00209449C1F89E
:10476000A00110BD70B504468F48001D006820F000
:10477000F0008D49091D08600846006840F03000CF
:104780000860002089490860002517E0E009874992
:10479000091D08606006040E022003F08AFD012056
:1047A0008349C1F8A001022003F083FD00207F4966
:1047B0000860022003F07DFD681CC5B2082DE5DB12
:1047C00070BD2DE9F04105460E4617469846FFF7A5
:1047D00001FF10B90120BDE8F0816906080EFFF75E
:1047E000C1FFFFF748FF18B9FFF724FF0120F2E7E8
:1047F0003046FFF7B7FFFFF73EFF00240BE018F845
:104800000400FFF7AFFFFFF736FF18B9FFF712FFFD
:104810000020E0E7641CBC42F1DBFFF70BFF002047
:10482000D9E770B5054600245F48001D006820F0F8
:10483000F0005D49091D08600846006840F08000EE
:104840000860002616E0002058490860022003F0A6
:1048500030FD01205649C1F8A0016006040E5348FE
:104860007C38006808B1601CC4B2022003F021FD4E
:10487000701CC6B2082EE6DB15B1FFF72DFF01E074
:10488000FFF74DFF204670BD2DE9F04106460F466B
:1048900014461D46FFF79EFE10B90120BDE8F081C9
:1048A0007106080EFFF75EFFFFF7E5FE18B9FFF788
:1048B000C1FE0120F2E73846FFF754FFFFF7DBFEA9
:1048C000FFF788FE012101EB4601C8B2FFF74AFF5E
:1048D000FFF7D1FE0DE0012C04D10020FFF7A1FF6E
:1048E000287003E00120FFF79CFF28706D1C601EFC
:1048F000C4B2002CEFD1FFF79DFE0020CEE770B5CB
:1049000005460E460024FFF765FE2846FFF72AFFFE
:10491000641CFFF7B0FE3046FFF724FF641CFFF76E
:10492000AAFEFFF757FE691CC8B2FFF71BFF641C05
:10493000FFF7A1FE0020FFF774FF0446FFF77AFEA1
:10494000204670BD2DE9F0410746884615461E46B3
:104950000024FFF73FFE3846FFF704FFFFF78BFE0A
:104960004046FFF7FFFEFFF786FEFFF733FE791C98
:10497000C8B2FFF7F7FEFFF77EFE00BF0DE0681E2E
:10498000A04204D00120FFF74CFF305503E0002087
:10499000FFF747FF3055601CC4B2AC42EFDBFFF7B6
:1049A00049FE2046BDE8F081000C0140A081214273
:1049B000008021422DE9F04180460D4616461F46F3
:1049C0000024FFF707FE4046FFF7CCFEFFF753FE3B
:1049D0002846FFF7C7FEFFF74EFE00BF06E0385D32
:1049E000FFF7C0FEFFF747FE601CC4B2B442F6DB1F
:1049F000FFF720FE0120BDE8F08170B505460E46A8
:104A0000144631462846FFF77AFF2070012070BD1A
:104A100037B504460D4602AB012229462046FFF772
:104A2000C9FF3EBD2DE9F8430746884614461D469A
:104A3000089E6A4641463846FFF7DFFF28B3601CF0
:104A4000FF2101FA00F0C4F108012944491EFF22A8
:104A50000A41104300F0FF09C5F1080006FA00F012
:104A6000C6B2C4F1070006419DF8000000EA090043
:104A700000909DF80000304300909DF800204146D2
:104A80003846FFF7C5FFBDE8F8830020FBE7F8B51F
:104A900006460F4614461D466A4639463046FFF71D
:104AA000ACFF2DB10120A0409DF80010084305E0A7
:104AB0000120A0409DF8001021EA0000C0B2009043
:104AC0009DF8002039463046FFF7A2FFF8BD0000F0
:104AD00008B50121042002F05DFA2020ADF80000A5
:104AE00048208DF8030069464B4801F031FF08BDAE
:104AF00001464A48006828B949480088401C484A8D
:104B0000108002E00020464A10804448006828B91E
:104B10004448007810B90120424A10704248007899
:104B2000B0B940480078012807D140480078401CBF
:104B30003E4A107001203C4A10703C480078022820
:104B400006D10020394A1070394A1080022070477F
:104B500032480068012804D10020324A1070324ADD
:104B600010703248007801281CD131480088401C60
:104B70002F4A10801046008888420ADD28480088A5
:104B8000884206DA0020294A1070294A1080012044
:104B9000DDE723480088884204DD0020234A1070A6
:104BA000234A10800020D2E72248007838B11B4801
:104BB000006820B900201F4908700120704717487D
:104BC0000068012801D11B4908700020F6E71A4847
:104BD000008840B91148006828B918480088401C6E
:104BE0001649088002E00020144908801348008814
:104BF000C82807DD01201049088000200F490880DF
:104C0000012070470C480088012802D100200A4981
:104C100008800020F5E7000000080140140121424F
:104C20004E01002048010020490100204A010020D7
:104C30004C010020500100205401002052010020AE
:104C400008B50121042002F0A5F91020ADF80000FC
:104C50008DF8030003208DF802006946154801F025
:104C600077FE08BD1449096809B914490860134959
:104C7000096819B90121124A116019E00F49096840
:104C8000012903D100210E4A116011E00A49096887
:104C9000491C094A1160094A1268914208D1084921
:104CA0000968C943074AC2F890110021024A1160FD
:104CB00070470000000801405C01002058010020FE
:104CC000900121420000214230B589B005460C46D2
:104CD0000121022002F06BF90121082002F05AF9AB
:104CE0000320ADF8200018208DF8230003208DF854
:104CF000220008A9234801F02BFE0121082002F020
:104D000049F94FF47040ADF8200010208DF82300D1
:104D100003208DF8220008A91A4801F019FEADF809
:104D20001850ADF814400020ADF81A00ADF8160088
:104D300005A9154802F066FA6020ADF804000120CC
:104D4000ADF806000020ADF80A00ADF80C0001A98E
:104D50000D4802F023FB01A90B4802F06AFB082171
:104D6000094802F0F1FE0821074802F0F6FE012191
:104D7000054802F0A3FE0121034802F09FFD09B09F
:104D800030BD0000000C014000040040014691F9D4
:104D90000020002A01DD00201EE091F90020002AF9
:104DA00001DA042018E091F90120002A01DD012038
:104DB00012E091F90120002A01DA05200CE091F9B6
:104DC0000220002A01DD022006E091F90220002ADB
:104DD00001DA062000E00720704770B50546284636
:104DE000FFF7D4FF0446E81CFFF7D0FF44EAC000F9
:104DF00084B2A81DFFF7CAFF44EA801084B220469F
:104E000070BD70B588B002A905A8FEF792F90446F6
:104E1000032C3ED101A8FDF700FC059805F04EFCDF
:104E20000646019905F0AAFC054605F00BFC059025
:104E3000069805F043FC0646019905F09FFC0546DF
:104E400005F000FC0690079805F038FC064601992D
:104E500005F094FC054605F0F5FB079005A8FEF764
:104E600078FC6846FDF7F6FB00200090BDF80010C6
:104E7000029848430290BDF80010039848430390FD
:104E8000BDF8001004984843049002A8FEF7F4FC13
:104E900000BF08B070BD2DE9F04304460D46DDE9C2
:104EA00007670021012041E0DFF8DCC53CF81080F5
:104EB000A0F1010CDFF8D09529F81C8009F1160C3F
:104EC0003CF81090A0F1010CDFF8BC8508F1160841
:104ED00028F81C9008F1160C3CF81090A0F1010C79
:104EE00008F1160828F81C9008F1160C3CF81090F0
:104EF000A0F1010C08F1160828F81C9008F1160C16
:104F00003CF81090A0F1010C08F1160828F81C904C
:104F100008F1160C3CF81090A0F1010C08F11608ED
:104F200028F81C9000F1010C0CF0FF000A28BBDBF4
:104F3000DFF854C5ACF81240ACF82850ACF83E206D
:104F4000ACF85430ACF86A60ACF8807000210020F6
:104F500008E0DFF834C53CF910C0614400F1010CF1
:104F60000CF0FF000A28F4DB4FF00A0C91FBFCFC6C
:104F70000FFA8CFCDFF81085A8F814C0002100207F
:104F80000AE0DFF804C50CF1160C3CF910C06144CE
:104F900000F1010C0CF0FF000A28F2DB4FF00A0CC4
:104FA00091FBFCFC0FFA8CF8DFF8DCC4ACF82A802B
:104FB000002100200AE0DFF8D0C40CF12C0C3CF9F1
:104FC00010C0614400F1010C0CF0FF000A28F2DB74
:104FD0004FF00A0C91FBFCFC0FFA8CF8DFF8A8C428
:104FE000ACF84080002100200AE0DFF89CC40CF1FE
:104FF000420C3CF910C0614400F1010C0CF0FF00C0
:105000000A28F2DB4FF00A0C91FBFCFC0FFA8CF83B
:10501000DFF874C4ACF85680002100200AE0DFF805
:1050200068C40CF1580C3CF910C0614400F1010C4B
:105030000CF0FF000A28F2DB4FF00A0C91FBFCFC9D
:105040000FFA8CF8DFF840C4ACF86C800021002027
:105050000AE0DFF834C40CF16E0C3CF910C0614476
:1050600000F1010C0CF0FF000A28F2DB4FF00A0CF3
:1050700091FBFCFC0FFA8CF8DFF80CC4ACF88280D2
:10508000BDE8F08338B50446032302226B21D0200B
:105090000094FFF7C7FC38BD38B50446022304224C
:1050A0001B21D0200094FFF7BDFC38BD38B5044665
:1050B000022304221C21D0200094FFF7B3FC38BD4A
:1050C00010B50446234606226B21D020FFF7DFFCF3
:1050D00010BD10B5ED4B01227521D020FFF732FC39
:1050E000EA48007810BD10B5FFF7F3FF682801D13A
:1050F000012010BD0020FCE710B504462346052220
:105100006A21D020FFF7C3FC10BD10B5044623462A
:1051100001223721D020FFF7BAFC10BD10B50220C4
:10512000FFF7B0FF0320FFF7B7FF0020FFF7BEFF38
:105130000020FFF7C5FF0020FFF7DEFF0020FFF78C
:10514000E4FF10BD38B5002000906B4601227521A8
:105150006820FFF799FB9DF8000068280ED000BF7B
:10516000CB48006800F4E060CA490843001DC84904
:105170000860BFF34F8F00BF00BFFEE7FCF759FF89
:10518000E0B97820FCF7BDFB7820FCF7A1FDC82032
:10519000FCF77FFEFEF742FABF48FFF71EFE04460B
:1051A000FEF746FA40F27310FEF783FEC820FEF7C2
:1051B000F9FBFFF726FE0120FDF776FF38BD2DE94C
:1051C000F04F8FB00CA8B5490DAB08AACDE900107F
:1051D000B349B448FEF7CCFFB048008800F48070B3
:1051E00000287DD0089805F069FA04464FF09D41EB
:1051F00005F032F9AC490860099805F05FFA0446F9
:105200004FF09D4105F028F9A84908600A9805F07B
:1052100055FA04464FF09D4105F01EF9A449086077
:105220000B9805F04BFA04464FF09D4105F014F938
:10523000A04908609C4801684FF0804005F09EFA44
:1052400006909B480168069805F098FA82469748B0
:1052500001684FF0404005F091FA069095480168CA
:10526000069805F08BFA8346514605F087F80790BB
:1052700005F058F8064603F055FF80464FF06632B9
:105280008D4B04F03FFD044604F07AFA8B49086028
:10529000874801684FF0804005F070FA0390844819
:1052A0000168039805F06AFA8246804801684FF069
:1052B000404005F063FA03907C480168039805F0CC
:1052C0005DFA8346514605F061FB81464FF07E5101
:1052D00005F054F8044605F025F8CDE9040100E096
:1052E00097E0714801684FF0804005F047FA834627
:1052F0006E480168584605F041FA81466C480168DD
:105300004FF0804005F03AFA83466A4801685846F3
:1053100005F034FA8246494605F030F8044605F0B7
:1053200001F80746DDE9042304F044F94FF0663242
:10533000614BCDE9060104F0E5FC054604F020FAD6
:105340005F4908605B480168006805F017FA039040
:1053500057480168006805F011FA02905348016847
:10536000006805F00BFA83464F480168006805F0B5
:1053700005FA5946019005F001F88246029905F0B8
:1053800005FB8146039905F001FB044604F0CAFFC2
:10539000CDE90401474801684348006805F0EEF98B
:1053A0008246434801684148006805F0E7F98346B2
:1053B000514604F0E3FF81464FF0804105F0DEF9ED
:1053C000044604F0AFFF0746DDE9042304F0F2F8D9
:1053D0004FF06632384BCDE9060104F093FC0546E8
:1053E00004F0CEF9374908602E49B1F9000005F004
:1053F00065F9354908602B49B1F9020005F05EF9FD
:10540000324908602749B1F9040005F057F93049DD
:1054100008600FB0BDE8F08F2DE9F05F4221D02089
:10542000FFF76DFA05464121D020FFF768FA05EB3A
:105430000024204605F042F982464FF08E41504646
:1054400005F068FA05D24FF08F41504605F09EFAFC
:1054500082462049504604F0FFFF834604F062FF75
:1054600080461D4A1D4B04F0BDF9064600221C4B28
:1054700004F048FC044604F083F98246504605F0E7
:10548000E1F8BDE8F09F000006020020F8010020CE
:105490000CED00E00000FA05800100206C01002006
:1054A00066010020600100207001002074010020CE
:1054B000780100207C01002066A64C4000000020FE
:1054C0000400002008000020100000200C00002034
:1054D000140000200000AA43A4703D0AD7434240B4
:1054E0000000244010B50A461AB10123F84C23608D
:1054F00002E00023F64C2360002114E00023F54C69
:10550000236000F080031BB10123241F236003E00C
:105510000023F04C241F23600123EE4C236043063C
:10552000180E4B1CD9B20829E8DB0123E84C236094
:1055300010BD30B500241CE004F1B001C8B2002158
:10554000FFF7D0FF00210846FFF7CCFF0021102015
:10555000FFF7C8FF002508E0DF4901EBC501085D42
:105560000121FFF7BFFF681CC5B2802DF4DB601C72
:10557000C4B2082CE0DB30BDF0B5144600267F280D
:1055800001DC3F2900DDF0BD0B46CF1701EB57775B
:10559000FF10C7F10707FAB2CF1701EB5777FF10DB
:1055A000A1EBC707FDB2C5F107070123BB40DEB27F
:1055B0004CB1C94B03EBC0039B5C3343C64F07EBB5
:1055C000C007BB5408E0C44B03EBC0039B5CB34370
:1055D000C14F07EBC007BB5400BFD4E72DE9F04F24
:1055E00080460C4615461E46A346A5F12000C5B2CE
:1055F00000273EE00C2E07D105EB4500B74901EB33
:10560000800010F8079004E0B54800EB051010F892
:1056100007904FF0000A26E009F0800028B12146EB
:105620004046099AFFF7A8FF09E0099808B9012048
:1056300000E00020024621464046FFF79DFF4FEA6A
:1056400049604FEA1069601CC4B2A4EB0B00B04281
:1056500005D15C4608F1010000F0FF0806E00AF100
:10566000010000F0FF0ABAF1080FD5DB00BF781C7B
:10567000C7B2B742BEDBBDE8F08F10B502460120CD
:1056800000E050430B1EA1F10104E1B2F9D110BDBD
:105690002DE9FF4F81B0074691461E460E9D4FF003
:1056A000000A002439E0301B401EC1B20A20FFF777
:1056B000E4FFB9FBF0F00A21B0FBF1F201FB1208A4
:1056C000BAF1000F16D1701EA04213DDB8F1000F21
:1056D0000ED10120AB4605EBDB71491001FB0471D3
:1056E0000090C8B22B4620220299FFF777FF12E004
:1056F0004FF0010A0120AB4605EBDB71491001FBBD
:1057000004710090C8B208F13001CAB22B46029968
:10571000FFF764FF00BF601CC4B2B442C3DB05B036
:10572000BDE8F08F30B500240CE0002506E0002035
:10573000694901EBC5010855681CC5B2802DF6DB2F
:10574000601CC4B2082CF0DBFFF7F3FE30BD78B567
:1057500005460E46144618E07A2D03DD002506F1B5
:105760001000C6B23A2E04DD002005460646FFF7BB
:10577000D9FF0120009022780C2331462846FFF7FC
:105780002DFF05F10800C5B2641C20780028E3D184
:1057900078BDF8B500215348006804F0BBFF15D26E
:1057A00051A200210846FFF7D2FF4E48006880F062
:1057B0000045284604F062FF04460C2003232246DD
:1057C000002100901620FFF763FF11E047A200219F
:1057D0000846FFF7BCFF4348006804F04FFF04464B
:1057E0000C2003232246002100901620FFF750FFD3
:1057F00000213F48006804F08DFF15D23DA2002132
:105800002C20FFF7A4FF3A48006880F000452846A6
:1058100004F034FF04460C200323224600210090AC
:105820004220FFF735FF11E033A200212C20FFF7C3
:105830008EFF2F48006804F021FF04460C2003234C
:105840002246002100904220FFF722FF00212B4832
:10585000006804F05FFF15D229A200215820FFF74D
:1058600076FF2648006880F00045284604F006FFD1
:1058700004460C2003232246002100906E20FFF7EF
:1058800007FF11E01FA200215820FFF760FF1B480F
:10589000006804F0F3FE04460C2003232246002196
:1058A00000906E20FFF7F4FE1748006800282FDAFA
:1058B00016A20A210020FFF74AFF0C2005230090C2
:1058C0001148006842420A210F20FFF7E1FE2DE057
:1058D000BC012142BC0122428A020020AEB700086E
:1058E00022BC000800000020523A2D00523A2B0042
:1058F00004000020503A2D00503A2B0008000020F0
:10590000593A2D00593A2B00580000202D00000074
:10591000FEA20A210020FFF71AFF0C2005230090A9
:10592000FB480A2102680F20FFF7B2FEF948006821
:10593000002810DAAFF22C020A215020FFF707FFEF
:105940000C2005230090F348006842420A215F20A2
:10595000FFF79EFE0DE0EDA20A215020FFF7F7FEB3
:105960000C2005230090EB480A2102685F20FFF716
:105970008FFEE9480068002810DAAFF270021421A7
:105980000020FFF7E4FE0C2005230090E2480068A9
:10599000424214210F20FFF77BFE0DE0DBA2142111
:1059A0000020FFF7D4FE0C2005230090DA481421D4
:1059B00002680F20FFF76CFED8480068002810DA54
:1059C000AFF2B80214215020FFF7C1FE0C200523CE
:1059D0000090D2480068424214215F20FFF758FE31
:1059E0000DE0CAA214215020FFF7B1FE0C200523C0
:1059F0000090CA48142102685F20FFF749FE002189
:105A0000C748006804F086FE32D2C6A21E210020DC
:105A1000FFF79DFEC248006880F00045284604F06C
:105A200011FE04460C20032322461E21009018205C
:105A3000FFF72EFEBCA21E212C20FFF788FEB848DF
:105A4000006880F00046B949304604F097FE0546EC
:105A500004F0F8FD642190FBF1F201FB12040C202C
:105A6000022322461E2100903220FFF711FE2BE078
:105A7000AFA21E210020FFF76AFEA948006804F0CB
:105A8000E1FD04460C20032322461E21009018202D
:105A9000FFF7FEFDA4A21E212C20FFF758FEA3490C
:105AA0009F48006804F06AFE054604F0CBFD6421BF
:105AB00090FBF1F201FB12040C20022322461E216E
:105AC00000903220FFF7E4FD00219A48006804F0BE
:105AD00021FE32D298A21E214220FFF738FE9548BF
