:020000040800F2
:1000000040040020010100088D05000825050008B6
:1000100055050008390300084514000800000000D9
:10002000000000000000000000000000550B000868
:100030003D030008000000003D0A0008AD0C000868
:100040001B0100081B0100081B0100081B01000820
:100050001B0100081B0100081B0100081B01000810
:100060001B0100081B0100081B0100081B01000800
:100070001B0100081B0100081B0100081B010008F0
:100080001B0100081B0100081B0100081B010008E0
:100090001B0100081B0100081B0100081B010008D0
:1000A0001B0100081B0100081B0100081B010008C0
:1000B000510F00081B0100081B0100081B0100086C
:1000C0001B0100081B0100081B0100081B010008A0
:1000D0001B0100081B0100081B0100081B01000890
:1000E0001B0100081B0100081B010008DFF80CD0F1
:1000F00000F010F9004800478D140008400400206B
:100100000648804706480047FEE7FEE7FEE7FEE7B1
:10011000FEE7FEE7FEE7FEE7FEE7FEE7B10C0008BC
:10012000ED000008F0B480EA0102D40F4200B2EB07
:10013000410F02D20246084611464A0042D0C30D82
:10014000DDB2C1F3C752AD1A202D35DAC1F3160165
:1001500041F4000204B15242C5F1200602FA06F150
:100160002A411044B3EBD05F23D0C4B1012DA0EBE2
:10017000C35009DCF0BC4FF0004202EAC352DBB2CC
:1001800000F5000000F097B8400000F1807000EB2F
:10019000C350A0F1807040EAD170490009E04908DD
:1001A00041EAC071A0EBC35000F50000400800EB2D
:1001B000C350F0BC00F076B86142012202EB41016D
:1001C000001BF6E7F0BC704781F00041AAE780F021
:1001D0000040A7E780EA010210B502F000434000AA
:1001E00022D04A001FD0010E01EB1261C0F356006D
:1001F000C2F3560240F4000042F40002A0FB0220C9
:1002000000047F39140400D0401C50EA124001D48D
:100210004000491EC2B20C0604EBD010401C40083E
:10022000802A02D003E0002010BD20F00100002948
:1002300000DA0020184310BDC10F80EAE0700844C6
:10024000CA079623002100F036B800F0004220F0E3
:100250000040C10DC0F3160040F400007F2901DA10
:1002600000207047962903DCC1F19601C84001E0E7
:1002700096398840002AF4D040427047002801DBBC
:10028000C0F10040002901DBC1F10041814270470B
:10029000002801DBC0F10040002901DBC1F1004171
:1002A000884270470029A8BF7047401C490008BF1A
:1002B00020F00100704710B4B0FA80FC00FA0CF096
:1002C00050EA010404BF10BC704749B1CCF12004CE
:1002D00021FA04F411FA0CF118BF0121214308435B
:1002E000A3EB0C01CB1D4FEA00614FEA102042BF87
:1002F000002010BC704700EBC35010440029A4BF7D
:1003000010BC7047401C490008BF20F0010010BC21
:1003100070470000064C074D06E0E06840F001031E
:1003200094E8070098471034AC42F6D3FFF7E2FE9A
:10033000041C0008241C000800BFFEE770470000F2
:1003400000B587B00121022000F07AFB01210420D2
:1003500000F086FB48208DF81B00C020ADF8180087
:1003600003208DF81A0006A91B4800F047F800206A
:10037000ADF81200ADF80E004FF6FF70ADF81000AA
:100380000020ADF80C008DF8140003A9134800F00C
:100390008FFF684600F09CFE0020ADF800000F20A3
:1003A000ADF8080069460D4800F03CFE0420ADF8A9
:1003B00000000F20ADF808006946084800F032FE42
:1003C00000231A460321054800F0F6FD01210348E9
:1003D00000F0E6FD07B000BD000801400004004049
:1003E00010B5054800F009FE04B20021024800F0F3
:1003F00031FF204610BD0000000400402DE9F0410F
:10040000024600250026002000230024002791F842
:1004100003C00CF00F0591F803C00CF0100CBCF1F8
:10042000000F03D091F802C04CEA050591F800C016
:10043000BCF1000F31D0146800202BE04FF0010C0C
:100440000CFA00F3B1F800C00CEA03069E4220D17A
:1004500083004FF00F0C0CFA03F7BC4305FA03FCC2
:100460004CEA040491F803C0BCF1280F06D14FF008
:10047000010C0CFA00FCC2F814C00AE091F803C0A9
:10048000BCF1480F05D14FF0010C0CFA00FCC2F88A
:1004900010C0401C0828D1D31460B1F800C0BCF1D2
:1004A000FF0F34DD546800202EE000F1080C4FF0FF
:1004B000010808FA0CF3B1F800C00CEA03069E42EA
:1004C00021D183004FF00F0C0CFA03F7BC4305FA5F
:1004D00003FC4CEA040491F803C0BCF1280F05D1D9
:1004E00000F1080C08FA0CF8C2F8148091F803C067
:1004F000BCF1480F07D100F1080C4FF0010808FAD1
:100500000CF8C2F81080401C0828CED35460BDE817
:10051000F08141617047016170470AB1016100E0FB
:100520004161704700BFFEE708B50121082000F0D7
:1005300097FA10208DF803004DF20100ADF800008D
:1005400003208DF8020069460148FFF757FF08BDF8
:10055000000C014000BFFEE708B50121082000F0B3
:100560007FFA10208DF803008001ADF80000032011
:100570008DF8020069460448FFF740FF4FF48061A0
:100580000148FFF7C8FF08BD000C0140704700009C
:1005900070B5002100230F22C47804B3154C2468E1
:1005A00004F4E064C4F5E064210AC1F10403CA4024
:1005B000447804FA03F184781440214309010E4C75
:1005C0000678A155047804F01F050124AC40057895
:1005D0006D11AD0005F1E025C5F8004109E0047892
:1005E00004F01F050124AC40044D0678761145F84F
:1005F000264070BD0CED00E000E400E080E100E08A
:1006000002490143024A1160704700000000FA05E8
:100610000CED00E070B500240EE00021204600F053
:10062000E1F8002504E0002000F07AF9681CC5B26A
:10063000802DF8DB601CC4B2082CEEDB70BD70B5F9
:10064000002406E0002500E06D1CB5F57A7FFBD3A1
:10065000641CB4F57A7FF5D300F052F8AE2000F0B8
:1006600043F9D52000F040F9802000F03DF9A820A2
:1006700000F03AF93F2000F037F9D32000F034F9C8
:10068000002000F031F9402000F02EF9A12000F008
:100690002BF9C82000F028F9DA2000F025F9122003
:1006A00000F022F9812000F01FF9CF2000F01CF9A2
:1006B000D92000F019F9F12000F016F9DB2000F044
:1006C00013F9302000F010F9A42000F00DF9A62055
:1006D00000F00AF98D2000F007F9142000F004F969
:1006E000AF2000F001F9FFF795FF70BD10B502468D
:1006F000012000E050430B1EA1F10101FAD110BD11
:1007000008B50121042000F0ABF90121082000F018
:10071000A7F910208DF8030003208DF80200402077
:10072000ADF8000069461E48FFF768FE8020ADF86E
:10073000000069461A48FFF761FE4FF48070ADF87B
:10074000000069461648FFF759FE4FF40070ADF8F7
:10075000000069461248FFF751FE4FF48070ADF873
:10076000000069460F48FFF749FE012240210C486E
:10077000FFF7D3FE012280210948FFF7CEFE0122B8
:1007800011020748FFF7C9FE012251020448FFF792
:10079000C4FE012211020348FFF7BFFE08BD00009E
:1007A000000C01400008014070B50546002413E02C
:1007B000002240210A48FFF7B0FE8020204100EAD5
:1007C000050280210648FFF7A8FE012240210448C7
:1007D000FFF7A3FE601CC4B2082CE9DB70BD00006B
:1007E000000C014070B505460C4645F0B00000F025
:1007F0007BF8102141EA141000F076F804F00F00A5
:1008000000F072F870BD00002DE9F04105460E467B
:100810001746721ED206110E6A1E5206100EFFF700
:10082000E1FF002409E0A7F12001134A02EB0111C6
:10083000085D00F075F8601CC4B2082CF3DB721E72
:10084000D206110E6A1E012303EB4202D0B2FFF75B
:10085000C9FF00240BE0A7F12001074A02EB0112B7
:1008600004F10801505C00F05BF8601CC4B2082C75
:10087000F1DBBDE8F0810000141600082DE9F04717
:1008800080460E4617461D46002415E0281B411ED3
:100890000A20FFF72BFFB7FBF0F00A21B0FBF1F2C3
:1008A00001FB120000F130093019C1B24A4640463E
:1008B000FFF7AAFF601CC4B2AC42E7DBBDE8F087DB
:1008C0002DE9F04107460E461546002407E02A5D53
:1008D0003019C1B23846FFF797FF601CC4B2285DDB
:1008E0000028F4D1BDE8F08110B5044600224FF491
:1008F00080710948FFF711FE00224FF4007107488C
:10090000FFF70BFE2046FFF74FFF012211020248BE
:10091000FFF703FE10BD000000080140000C01407D
:1009200010B5044600224FF480710848FFF7F5FD2A
:10093000012251020648FFF7F0FD2046FFF734FF81
:10094000012211020148FFF7E8FD10BD0008014037
:10095000000C014000B589B00121084600F070F894
:100960000121042000F07CF818208DF823000320DA
:10097000ADF820008DF8220008A92B48FFF73EFDB6
:100980004FF0804000F0B6FB0020ADF81A00ADF843
:1009900016006320ADF8180040F2CF20ADF8140027
:1009A00000208DF81C0005A94FF0804000F080FC6D
:1009B00001A800F043FC6020ADF804000020ADF871
:1009C0000C000120ADF806000020ADF80A0001A9D6
:1009D0004FF0804000F094FB01A94FF0804000F000
:1009E000DBFB0121880700F0D5FA012211469007B0
:1009F00000F077FB4FF4A060FFF702FE1C208DF89B
:100A0000000001208DF8030002208DF80100012074
:100A10008DF802006846FFF7BBFD0121880700F052
:100A2000BFFA09B000BD00000008014010B504463F
:100A300021464FF0804000F00BFC10BD70470000D5
:100A400029B1064AD2690243044BDA6104E0034A41
:100A5000D2698243014BDA61704700000010024006
:100A600029B1064A92690243044B9A6104E0034AA1
:100A700092698243014B9A61704700000010024066
:100A800030B500210022002400232D4D6D6805F0B3
:100A90000C0121B1042905D0082923D105E0294DF5
:100AA000056022E0274D05601FE0254D6D6805F4C7
:100AB0007012234D6D6805F48034022505EB9242D7
:100AC0001CB9214D554305600BE01D4D6D6805F4C3
:100AD00000351DB11C4D5543056002E0194D5543CD
:100AE000056002E0174D056000BF00BF144D6D6842
:100AF00005F0F0010909154D6B5C0568DD404560A6
:100B00000F4D6D6805F4E061090A104D6B5C456896
:100B1000DD4085600A4D6D6805F46051C90A0B4DD2
:100B20006B5C4568DD40C560054D6D6805F440416E
:100B3000890B074D6B5CC568B5FBF3F5056130BDEE
:100B40000010024000127A0000093D000000002061
:100B5000100000207047000000B585B00121880317
:100B6000FFF77EFF01210420FFF77AFF18208DF8A0
:100B700013004FF40070ADF8100003208DF8120040
:100B800004A90E48FFF73AFC4FF4165000900020DD
:100B9000ADF80C000820ADF80A000020ADF8080000
:100BA000ADF80600ADF804006946054800F0DEFB2C
:100BB0000121034800F0CEFB05B000BD0008014054
:100BC0000038014010B500F001F810BD0CB5002050
:100BD000019000903348006840F48030314908604B
:100BE00000BF3048006800F4003000900198401CBD
:100BF0000190009818B90198B0F5A06FF1D129487B
:100C0000006800F4003010B10120009001E00020E5
:100C100000900098012843D12348006840F010005C
:100C2000214908600846006820F003000860084673
:100C3000006840F0020008601A484068194948609E
:100C40000846406848600846406840F48060486054
:100C50000846406820F47C1048600846406840F42C
:100C6000E81048600846006840F08070086000BFE7
:100C70000C48006800F000700028F9D0094840686E
:100C800020F00300074948600846406840F0020031
:100C9000486000BF0348406800F00C000828F9D104
:100CA0000CBD000000100240002002407047000010
:100CB00010B51348006840F001001149086008466B
:100CC0004068104908400E494860084600680E49CF
:100CD00008400B4908600846006820F4802008603E
:100CE0000846406820F4FE0048604FF41F0088600A
:100CF000FFF768FF4FF000600449086010BD000076
:100D0000001002400000FFF8FFFFF6FE08ED00E0D3
:100D1000F0B50C46154600220021068C4FF6FE77F2
:100D20003E400684028B018C4FF60C7632407E1CCE
:100D300006EA03162E433243104EB0420ED0104E38
:100D4000B0420BD0B0F1804F08D00E4EB04205D06B
:100D50000D4EB04202D00D4EB04206D14FF6FD7698
:100D6000314044F00106314305E04FF6F57631405D
:100D700044F00106314302830184F0BD002C0140A0
:100D8000003401400004004000080040000C004016
:100D9000F0B50C461546002200210026078C4FF6C0
:100DA000EF7C07EA0C070784028B018C4FF6FF7774
:100DB00007EA041640F6FF473A404FF6FF7707EA86
:100DC00003373A434FF6FF7707EA05273A43114FB7
:100DD000B8420ED0104FB8420BD0B0F1804F08D0BF
:100DE0000E4FB84205D00E4FB84202D00D4FB84258
:100DF00006D14FF6DF77394046F01007394305E05A
:100E00004FF65F77394044F010073943028301847D
:100E1000F0BD0000002C01400034014000040040FF
:100E200000080040000C0040F0B50C4615460022BA
:100E300000210026078C4FF6FF6C07EA0C07078499
:100E4000828B018C4FF6FF7707EA04264FF60C776A
:100E50003A404FF6FF7707EA03172F433A43114F03
:100E6000B8420ED0104FB8420BD0B0F1804F08D02E
:100E70000E4FB84205D00E4FB84202D00D4FB842C7
:100E800006D14FF6FF57394046F48077394305E0E5
:100E90004FF2FF57394044F480773943828301840D
:100EA000F0BD0000002C014000340140000400406F
:100EB00000080040000C0040F0B50C46154600222A
:100EC00000210026078C4EF6FF7C07EA0C070784FA
:100ED000828B018C4FF6FF7707EA043640F6FF4716
:100EE0003A404FF6FF7707EA05273A434FF6FF7778
:100EF00007EA03373A43114FB8420ED0104FB842B9
:100F00000BD0B0F1804F08D00E4FB84205D00E4F35
:100F1000B84202D00D4FB84206D14DF6FF773940A6
:100F200046F48057394305E047F6FF57394044F40B
:100F30008057394382830184F0BD0000002C0140BA
:100F4000003401400004004000080040000C004054
:100F500010B50121880700F053F8012815D10B487E
:100F60000088401C00B209490880084600880A2809
:100F700007D1FFF735FA00B2054908800020034980
:100F800008800121880700F008F810BD3600002015
:100F900034000020CA4302827047CA43028270476D
:100FA00021B1028842F00102028004E002884FF67B
:100FB000FE731A4002807047F0B50C4615461E4677
:100FC0000021002200230189028B038C4FF6F87761
:100FD000394021434FF6FC473A4040F201173A436B
:100FE0004FF6DD773B404FF6FF7707EA06172F43B2
:100FF0003B43018102830384F0BD0146888C704726
:1010000030B50246002000230024158A05EA0103BA
:10101000958905EA010413B10CB1012000E000201C
:1010200030BD000070B505460C46244885420ED000
:10103000234885420BD0B5F1804F08D02148854226
:1010400005D02148854202D02048854200D100E0E9
:1010500000BF208850B92389A28861882846FFF7FD
:1010600057FEE188284600F0F7F825E0208804289C
:101070000AD12389A28861882846FFF789FEE18882
:10108000284600F0F2F817E0208808280AD12389C2
:10109000A28861882846FFF7C7FEE188284600F04D
:1010A000F1F809E02389A28861882846FFF704FF48
:1010B000E188284600F0EFF870BD0000002C0140E8
:1010C000003401400004004000080040000C0040D3
:1010D000002101804180012181800021C1800181A6
:1010E00070471AB183890B43838102E083898B4364
:1010F0008381704701894FF6F87211400181704772
:1011000070B5002400220023058C4FF6FE76354092
:101110000584028C8388048B4FF68F752C40B51E96
:101120002C400D882C43751E2A400D892A434D887A
:101130002A43144DA8420BD0134DA84208D0134D9A
:10114000A84205D0124DA84202D0124DA84213D198
:101150004FF6F7752A404D892A434FF6FB752A4012
:101160008D882A434FF6FF652B404FF6FF552B40E5
:101170008D892B43CD892B4383800483CD8885863D
:10118000028470BD002C0140003401400040014049
:10119000004401400048014070B5002400220023B3
:1011A000058C4FF6EF7635400584028C8388048BDE
:1011B00048F6FF752C404FF6FF452C400D884FF642
:1011C000FF7606EA05252C434FF6DF752A400D8988
:1011D00006EA05152A434D8806EA05152A43154DEA
:1011E000A84202D0144DA8421DD14FF67F752A4067
:1011F0004D894FF6FF7606EA05152A434FF6BF756F
:101200002A408D8806EA05152A434FF6FF352B4004
:101210004FF2FF752B408D8906EA85052B43CD895A
:1012200006EA85052B4383800483CD8805870284E5
:1012300070BD0000002C01400034014000210180FD
:1012400041808180C180018141818181C18170475C
:101250008186704781847047028B4FF6F3731A4082
:101260000283028B0A4302837047028B4FF2FF33E3
:101270001A400283028B4FF6FF7303EA01231A43DD
:1012800002837047828B4FF6F3731A408283828BFE
:101290000A4382837047828B4FF2FF331A40828366
:1012A000828B4FF6FF7303EA01231A438283704750
:1012B000002202881D4B98420ED01D4B98420BD045
:1012C000B0F1804F08D01B4B984205D01A4B984282
:1012D00002D01A4B984204D14FF68F731A404B88B4
:1012E0001A43174B984207D0164B984204D04FF63A
:1012F000FF431A40CB881A4302808B8883850B8872
:1013000003850A4B98420BD0094B984208D00E4BEC
:10131000984205D00D4B984202D00D4B984201D116
:101320000B7A03860123838270470000002C014062
:10133000003401400004004000080040000C004060
:1013400000100040001400400040014000440140F3
:101350000048014021B1828942F40052828104E0B8
:1013600082894DF6FF731A40828170472DE9F0475C
:1013700086B005460E460024A24600BFA1460027BF
:10138000B08900B100BF2F462C8A4CF6FF70044094
:10139000F08804432C82AC894EF6F3100440B088E8
:1013A00031890843718908430443AC81AC8A4FF604
:1013B000FF400440B0890443AC8201A8FFF760FB02
:1013C0001F48874202D1DDF810A001E0DDF80CA033
:1013D000A88900F4004040B10AEBCA0000EB0A10F3
:1013E00031684900B0FBF1F807E00AEBCA0000EBF6
:1013F0000A1031688900B0FBF1F86420B8FBF0F006
:1014000004012009642101FB1089A88900F400402F
:1014100040B1322000EBC900B0FBF1F000F0070052
:10142000044308E0322000EB09106421B0FBF1F026
:1014300000F00F0004432C8106B0BDE8F0870000E7
:101440000038014000BFFEE702E008C8121F08C1D3
:10145000002AFAD170477047002001E001C1121F35
:10146000002AFBD17047000010B504462046FFF764
:10147000DDFA01210448FFF74CF84FF4805102488F
:10148000FFF749F810BD0000000C0140FFF7D7F846
:10149000FFF74AF8FFF760FBFFF75CFAFFF75CF82D
:1014A000FEF74EFF4FF4A060FFF7AAF80FA201214C
:1014B0000846FFF705FA18E00E48B0F90000FEF7FD
:1014C000BBFE064631460C48B0F9000000F01EF89D
:1014D0000546FEF7BAFE0446E0B2FFF7C5FF022359
:1014E000224607210120FFF7C9F9E5E7737065651A
:1014F000643A000038000020340000200146002932
:1015000001DA4A4200E00A4610B270472DE9F0477E
:1015100004460D462046FFF7F1FF04462046FEF73D
:101520008BFE06462946FEF752FE264908602648ED
:1015300001684FF08040FEF74DFE81462348016868
:1015400020480068FEF7EEFD82464946FEF73CFE65
:1015500080461F4801684046FEF73CFE0646194893
:1015600001681C480068FEF735FE81461648016890
:1015700014480068FEF728FE824617480168504666
:10158000FEF728FE80464946FEF7CCFD0746314669
:10159000FEF7C8FD11490860084601681048006858
:1015A000FEF7C0FD0E49086000F01CF80648006810
:1015B0000649086003480068034908600848006855
:1015C000BDE8F08714000020180000201C00002057
:1015D000300000202C0000202800002024000020E3
:1015E0002000002010B5094909480068FEF750FEA8
:1015F00002D2064806490860002105480068FEF747
:101600003DFE02D200200249086010BD0000C64223
:10161000200000200000000000000000000000008A
:1016200000000000000000F800000000000000338F
:101630003000000000100C06100C06000000000036
:101640000000000040C07840C0784000043F04041F
:101650003F040400007088FC08300000001820FFE0
:10166000211E0000F008F000E018000000211C031B
:101670001E211E0000F00888700000001E21232497
:101680001927211010160E000000000000000000B5
:1016900000000000000000E0180402000000000745
:1016A0001820400000020418E0000000004020184C
:1016B00007000000404080F0804040000202010F1F
:1016C00001020200000000F0000000000101011F03
:1016D00001010100000000000000000080B0700067
:1016E00000000000000000000000000000010101F7
:1016F0000101010100000000000000000030300086
:10170000000000000000000080601804006018065F
:101710000100000000E010080810E000000F102099
:1017200020100F00001010F8000000000020203FE3
:10173000202000000070080808887000003028246D
:10174000222130000030088888483000001820200E
:1017500020110E000000C02010F800000007042433
:10176000243F240000F80888880808000019212078
:1017700020110E0000E0108888180000000F1120D2
:1017800020110E0000380808C83808000000003F8B
:10179000000000000070880808887000001C2221EA
:1017A00021221C0000E010080810E0000000312297
:1017B00022110F00000000C0C00000000000003037
:1017C0003000000000000080000000000000806089
:1017D000000000000000804020100800000102040A
:1017E00008102000404040404040400004040404F1
:1017F00004040400000810204080000000201008AD
:1018000004020100007048080808F00000000030E1
:1018100036010000C030C828E810E000071827246F
:1018200023140B000000C038E0000000203C23021D
:101830000227382008F8888888700000203F202080
:1018400020110E00C03008080808380007182020B2
:101850002010080008F808080810E000203F2020A9
:1018600020100F0008F88888E8081000203F20208A
:101870002320180008F88888E8081000203F20007E
:1018800003000000C03008080838000007182020B6
:10189000221E020008F808000008F808203F210175
:1018A00001213F20000808F8080800000020203F20
:1018B0002020000000000808F8080800C080808090
:1018C0007F00000008F888C028180800203F200189
:1018D0002638200008F8080000000000203F2020E3
:1018E0002020300008F8F800F8F80800203F003FFA
:1018F000003F200008F830C00008F808203F200012
:1019000007183F00E01008080810E0000F10202022
:1019100020100F0008F808080808F000203F2101F7
:1019200001010000E01008080810E0000F1824244E
:1019300038504F0008F8888888887000203F2000C1
:10194000030C302000708808080838000038202177
:1019500021221C00180808F8080818000000203F81
:101960002000000008F808000008F808001F2020E8
:1019700020201F000878880000C8380800000738B9
:101980000E010000F80800F80008F800033C07000A
:10199000073C0300081868808068180820302C0372
:1019A000032C30200838C800C83808000000203F49
:1019B0002000000010080808C83808002038262138
:1019C00020201800000000FE020202000000007F3C
:1019D00040404000000C30C000000000000000014A
:1019E0000638C00000020202FE0000000040404035
:1019F0007F0000000000040202020400000000005A
:101A000000000000000000000000000080808080D6
:101A100080808080000202040000000000000000BE
:101A20000000000000008080808000000019242257
:101A300022223F2008F8008080000000003F112093
:101A400020110E000000008080800000000E112098
:101A500020201100000000808088F800000E112076
:101A600020103F200000808080800000001F222284
:101A700022221300008080F0888888180020203FF0
:101A8000202000000000808080808000006B949403
:101A90009493600008F8008080800000203F2100BF
:101AA00000203F2000809898000000000020203F88
:101AB00020200000000000809898000000C0808076
:101AC000807F000008F8000080808000203F240212
:101AD0002D302000000808F8000000000020203F02
:101AE000202000008080808080808000203F2000B7
:101AF0003F20003F8080008080800000203F210048
:101B000000203F200000808080800000001F2020F7
:101B100020201F00808000808000000080FFA12026
:101B200020110E000000008080808000000E112037
:101B300020A0FF80808080008080800020203F21C6
:101B40002000010000008080808080000033242479
:101B500024241900008080E0808000000000001F25
:101B6000202000008080000000808000001F2020D6
:101B700020103F20808080000080808000010E3097
:101B80000806010080800080008080800F300C03F8
:101B90000C300F0000808000808080000020312EFB
:101BA0000E312000808080000080808080818E70D7
:101BB0001806010000808080808080000021302C89
:101BC0002221300000000000807C020200000000A2
:101BD000003F404000000000FF0000000000000047
:101BE000FF0000000002027C800000000040403F37
:101BF00000000000000601010202040400000000D1
:101C000000000000241C0008000000203C00000030
:101C100048140008601C00083C0000200404000078
:101C2000581400080000000001020304010203042C
:101C30000607080902040608000000000000000072
:101C400000000000000000000000000000006040F4
:101C5000CDCCCC3E00000000000000005000000091
:04000005080000ED02
:00000001FF
