:020000040800F2
:100000001806002045010008CF1A0008C71A00088A
:10001000CB1A000835090008C923000800000000B9
:10002000000000000000000000000000551C000857
:100030007509000800000000291C0008751C000854
:100040005F0100085F0100085F0100085F01000810
:100050005F0100085F0100085F0100085F01000800
:100060005F0100085F0100085F0100085F010008F0
:100070005F0100085F0100085F0100085F010008E0
:100080005F0100085F0100085F0100085F010008D0
:100090005F0100085F0100085F0100085F010008C0
:1000A0005F0100085F0100085F0100085F010008B0
:1000B0005F010008711D00085F0100085F01000872
:1000C0005F0100085F0100085F0100085F01000890
:1000D0005F0100085F0100085F0100085F01000880
:1000E0005F0100085F0100085F0100085F01000870
:1000F0005F0100085F0100085F0100085F01000860
:100100005F0100085F0100085F0100085F0100084F
:100110005F0100085F0100085F0100085F0100083F
:100120005F0100085F0100085F0100085F0100082F
:10013000DFF80CD000F06EFB00480047152D0008DA
:10014000180600200648804706480047FEE7FEE7FD
:10015000FEE7FEE7FEE7FEE7FEE7FEE7FEE7FEE777
:10016000E11C000831010008202A04DB203A21FAB2
:1001700002F00021704721FA02F3D040C2F12002C0
:100180009140084319467047D2B201E000F8012BB4
:10019000491EFBD270470022F6E710B513460A4607
:1001A00004461946FFF7F0FF204610BDF0B480EA80
:1001B0000102D40F4200B2EB410F02D202460846C0
:1001C00011464A0042D0C30DDDB2C1F3C752AD1A89
:1001D000202D35DAC1F3160141F4000204B1524278
:1001E000C5F1200602FA06F12A411044B3EBD05FB4
:1001F00023D0C4B1012DA0EBC35009DCF0BC4FF0FB
:10020000004202EAC352DBB200F5000000F01BB965
:10021000400000F1807000EBC350A0F1807040EA14
:10022000D170490009E0490841EAC071A0EBC35010
:1002300000F50000400800EBC350F0BC00F0FAB835
:100240006142012202EB4101001BF6E7F0BC70475E
:1002500081F00041AAE780F00040A7E780EA0102B0
:1002600010B502F00043400022D04A001FD0010E1A
:1002700001EB1261C0F35600C2F3560240F40000D5
:1002800042F40002A0FB022000047F39140400D0D5
:10029000401C50EA124001D44000491EC2B20C0674
:1002A00004EBD010401C4008802A02D003E000205C
:1002B00010BD20F00100002900DA0020184310BD15
:1002C00030B480EA010202F0004530F0004221F033
:1002D000004013D090B1C30DD40DC2F31601C0F38A
:1002E0001600E41A41F4000140F400027D3491420A
:1002F00001D3641C00E04900002C02DA30BC00206D
:1003000070474FF400000023914201D3891A034340
:1003100040084FEA4101F7D151B1914202D14FF06B
:10032000004105E002D24FF0010101E06FF0010150
:1003300003EBC450284430BC00F07CB8C10F80EA05
:10034000E0700844CA079623002100F07CB800F052
:10035000004220F00040C10DC0F3160040F4000040
:100360007F2901DA00207047962903DCC1F196014C
:10037000C84001E096398840002AF4D040427047D6
:1003800000F0004230F000400AD0C10D01F560716C
:10039000C0F3160042EA0151C208400711437047FA
:1003A00000200146704730B50B4601460020202250
:1003B000012409E021FA02F59D4205D303FA02F572
:1003C000491B04FA02F52844151EA2F10102F1DCD2
:1003D00030BD2DE9F05F0546002092469B468846D9
:1003E0000646814640241BE02846414647462246B1
:1003F000FFF7BAFE53465A46C01A914110D3114630
:100400001846224600F018FA2D1A67EB01084F46ED
:1004100022460120002100F00FFA17EB00094E419F
:10042000201EA4F10104DFDC484631462A4643463B
:10043000BDE8F09F0029A8BF7047401C490008BFD5
:1004400020F00100704710B4B0FA80FC00FA0CF004
:1004500050EA010404BF10BC704749B1CCF120043C
:1004600021FA04F411FA0CF118BF012121430843C9
:10047000A3EB0C01CB1D4FEA00614FEA102042BFF5
:10048000002010BC704700EBC35010440029A4BFEB
:1004900010BC7047401C490008BF20F0010010BC90
:1004A00070472DE9FE4F804681EA0300C00F0C46DD
:1004B000009021F0004123F00045B8EB0200A94173
:1004C00005D24046214690461C460B46024623F084
:1004D0000040104347D0270DC7F30A00C3F30A5169
:1004E0000290401A019040286BDAC3F3130040F4E5
:1004F000801B0098924620B10023D2EB030A63EBE5
:100500000B0B01985946C0F14002504600F094F997
:1005100006460D4650465946019A00F09CF910EBEC
:1005200008006141002487EA115284EAE7731A4304
:1005300040D0009A62B3019A012A4FEA075215DCB3
:10054000001B61EB02014FF0004202EA0752CDE9C5
:100550000042001C41F5801132462B4600F09CF908
:1005600003B0BDE8F08F40462146F9E7001B61EB80
:100570000201001C41F5801300185B412018A2F510
:10058000001747EB030140EAD570B6196D4111E041
:100590006D084FEA360645EAC0754FEA0752001B60
:1005A00061EB0201001C41F5801149084FEA30005F
:1005B0000019514132462B4603B0BDE8F04F00F020
:1005C0005CB90098012240000023D0EB020263EBEB
:1005D000E073009821464FEAE074B8EB000061EB4D
:1005E0000401E9E783F000435BE781F0004158E74D
:1005F0002DE9FE4F81EA030404F0004421F000419C
:1006000000944FF0000B23F0004350EA01045ED049
:1006100052EA03045BD0C3F30A54C1F30A552C44D5
:10062000A4F2F3340194A0FB0254C1F3130141F48A
:100630008011C3F3130343F4801301FB024400FB56
:10064000034E840A970A44EA815447EA8357A4FB7D
:10065000076802958D0A05FB07854FEA932C04FB7A
:100660000C542705029D4FEA065847EA1637B5EBAA
:1006700008056EEB070C870E920E47EA811742EAD7
:100680008312A7FB0201B6EB0B0164EB00042B0DF8
:1006900043EA0C335E1844EB1C50DA465146E7FB44
:1006A0000201C5F313044FEA0B3343EA14534FEA34
:1006B0000432019C43EA0603A4F10C040294009C5A
:1006C000CDE900B400F0E8F803B0BDE8F08F0020F9
:1006D0000146F9E72DE9F04D81EA030404F0004BEF
:1006E00021F0004514464FF0000A23F0004150EA83
:1006F000050220D054EA01021DD0C5F30A57024674
:10070000C5F31303C1F31300C1F30A5640F4801577
:1007100043F48013A7EB0608101BD64608F2FD38F9
:1007200073EB050002D308F1010801E092185B4168
:10073000B8F1000F03DA00200146BDE8F08D00207B
:100740004FF48011064684460EE0171B73EB050735
:1007500005D3121B63EB050306434CEA010C490861
:100760004FEA300092185B4150EA0107EDD152EA9E
:10077000030012D082EA040083EA0501084305D091
:10078000101BAB4106D20122002306E000224FF0ED
:10079000004302E06FF0010253101AEB06004CEB2D
:1007A000085110EB0A0041EB0B01BDE8F04D00F0E1
:1007B00064B8C1F30A52C1F3130140F2FF3341F4AC
:1007C00080119A4202DA00200146704740F233431A
:1007D0009A42A2F2334202DC5242FFF7C5BC00F05B
:1007E0002BB8000030B5041E71F1000404DB4FF09B
:1007F0000044404264EB0101141E73F1000405DB68
:100800001C464FF00043524263EB0403994208BF79
:10081000904230BD064C074D06E0E06840F0010311
:1008200094E8070098471034AC42F6D3FFF784FCF5
:100830003830000858300008202A04DB203A00FA3B
:1008400002F1002070479140C2F1200320FA03F327
:10085000194390407047202A06DBCB17203A41FA13
:1008600002F043EAE07306E041FA02F3D040C2F13D
:100870002002914008431946704710B5141E73F1C9
:10088000000408DA401C41F1000192185B411A4350
:1008900001D120F0010010BD2DE9F04D92469B469C
:1008A00011B1B1FA81F202E0B0FA80F22032904642
:1008B000FFF7C2FF04460F4640EA0A0041EA0B0177
:1008C00053465A46084313D0114653EA010019D043
:1008D000C8F140025046FFF747FC05460E46504619
:1008E00059464246FFF7A8FF084305D0012004E01F
:1008F00020463946BDE8F08D0020054346EAE07603
:100900002C4337430A986305E40AA0EB0800002251
:10091000FD0A44EA47540A3002D500200146E9E7BF
:10092000010510196941DDE9084500196941BDE873
:10093000F04DA2E700BFFEE710B50C480C49086077
:100940004FF4E1304860002109488160C1600161D5
:1009500081610C21416100F0C3FF05480068C06857
:1009600040F0200002490968C86010BD003801400D
:10097000340000207047000000B585B000200190D1
:1009800002900390049000BF1C48806940F0100062
:100990001A4988610846806900F01000009000BF85
:1009A00000BF00BF0846806940F01000886108461B
:1009B000806900F01000009000BF00BF00BF104928
:1009C000486820F4406040F0E06040F440604860D7
:1009D00000BF0020029001200390032004904020DB
:1009E000019001A9074800F01BF88020019001A99F
:1009F000044800F015F805B000BD000000100240EA
:100A0000000001400010014010B5FFF7B5FF01F0F4
:100A100017FA10BD0149086070470000F40100207A
:100A20002DE9F847024600239C467BE14FF0010880
:100A300008FA03F4D1F8008008EA0400A0427DD14E
:100A4000DFF8F4A2D1F80480A8EB0A09D0453AD027
:100A500014DCB8F1030F50D009DCB8F1000F31D02D
:100A6000B8F1010F1CD0B8F1020F49D120E0B8F164
:100A7000110F18D0B8F1120F42D11EE0B9F5881F3E
:100A800025D006DCB9F5803F20D0B9F5801F37D1DD
:100A90001AE0B9F5001F18D0B9F5041F30D117E0DE
:100AA000D1F80CC02DE0D1F80C8008F1040C28E03E
:100AB000D1F80C8008F1080C23E0D1F80C8008F183
:100AC0000C0C1EE000BF00BF00BF00BF00BF00BF96
:100AD000D1F80880B8F1000F02D14FF0040C0BE000
:100AE000D1F80880B8F1010F03D14FF0080C146160
:100AF00002E04FF0080C546103E04FF0000C00E0FE
:100B000000BF00BFFF2801D8904601E002F10408B1
:100B10004646FF2802D84FEA830803E0A3F10808FD
:100B20004FEA88084746D6F800804FF00F0909FAC7
:100B300007F928EA09080CFA07F900E07AE048EA20
:100B40000908C6F80080D1F8048008F08058B8F190
:100B5000805F6FD100BFDFF8E481D8F8188048F0DB
:100B60000108DFF8D891C9F81880C846D8F818806D
:100B700008F00108CDF8008000BF00BF4FEAB93887
:100B80004FEA930958F829504FEA83784FEA1879C9
:100B90004FF00F0808FA09F825EA0805DFF8A081E8
:100BA000424502D14FF0000824E0DFF89881424529
:100BB00002D14FF001081DE0DFF88C81424502D1DF
:100BC0004FF0020816E0DFF88481424502D14FF071
:100BD00003080FE0DFF87881424502D14FF00408A6
:100BE00008E0DFF87081424502D14FF0050801E0CE
:100BF0004FF006084FEA83794FEA197908FA09F8A5
:100C000048EA0505DFF850814FEA930948F8295072
:100C1000D1F8048008F48038B8F5803F0BD1DFF8B4
:100C20003C81D8F8008048EA0008DFF83091C9F824
:100C300000800AE075E0DFF82481D8F8008028EA17
:100C40000008DFF81891C9F80080D1F8048008F492
:100C50000038B8F5003F0ED1DFF8008108F1040834
:100C6000D8F8008048EA0008DFF8F09009F104099C
:100C7000C9F800800DE0DFF8E48008F10408D8F836
:100C8000008028EA0008DFF8D49009F10409C9F8C7
:100C90000080D1F8048008F48018B8F5801F0ED1C8
:100CA000DFF8B88008F10808D8F8008048EA0008A2
:100CB000DFF8A89009F10809C9F800800DE0DFF815
:100CC0009C8008F10808D8F8008028EA0008DFF8BE
:100CD0008C9009F10809C9F80080D1F8048008F463
:100CE0000018B8F5001F0ED1DFF8708008F10C086D
:100CF000D8F8008048EA0008DFF8609009F10C0994
:100D0000C9F800800DE0DFF8548008F10C08D8F82D
:100D1000008028EA0008DFF8449009F10C09C9F8BE
:100D200000805B1CD1F8008028FA03F8B8F1000FAE
:100D30007FF47CAEBDE8F88700001110001002407F
:100D400000080140000C0140001001400014014067
:100D500000180140001C014008000140000401404F
:100D60000AB1016101E00B040361704701480068AA
:100D70007047000004000020034800680349097818
:100D80000844014908607047040000200C0000205E
:100D900070B504460E4800784FF47A71B1FBF0F05C
:100DA0000C490968B1FBF0F5284600F019FC08B1C0
:100DB000012070BD102C07D200222146501E00F0E9
:100DC0001DF80548046001E00120F2E70020F0E78B
:100DD0000C0000200000002008000020014608460A
:100DE000002809DB00F01F0301229A4043099B0001
:100DF00003F1E023C3F8002100BF70472DE9F05F45
:100E000080460D461646002701F0F0FA074639469F
:100E10002A46334601F00700C0F1070ABAF1040F71
:100E200002D94FF0040A01E0C0F1070AD14600F1EF
:100E3000040ABAF1070F02D24FF0000A01E0A0F154
:100E4000030AD4464FF0010A0AFA09FAAAF1010A84
:100E50000AEA020A0AFA0CFA4FF0010B0BFA0CFB31
:100E6000ABF1010B0BEA030B4AEA0B0421464046A7
:100E700001F0C4FABDE8F09F70B504460D460CB908
:100E8000012070BD5A48006800F00700A8420ED249
:100E90005748006820F00700284355490860084675
:100EA000006800F00700A84201D00120E9E720789F
:100EB00000F0020002281DD1207800F00400042870
:100EC00005D14C48406840F4E0604A4948602078C9
:100ED00000F00800082805D14648406840F46050FA
:100EE000444948604348406820F0F000A168084346
:100EF00040494860207800F0010078B3606801281C
:100F000006D13C48006800F4003090B90120B8E7F1
:100F10006068022806D13748006800F0007040B9C8
:100F20000120AEE73348006800F0020008B9012054
:100F3000A7E73048406820F00300616808432D4966
:100F40004860FFF713FF064609E0FFF70FFF801B1D
:100F500041F28831884202D9032092E707E0254810
:100F6000406800F00C006168B0EB810FEDD12048C3
:100F7000006800F00700A8420ED91D48006820F064
:100F8000070028431A4908600846006800F0070077
:100F9000A84201D0012074E7207800F00400042862
:100FA00007D11448406820F4E060E1680843114923
:100FB0004860207800F00800082808D10D484068F3
:100FC00020F46050216940EAC1000A49486000F0FD
:100FD0003FF808494968C1F30311074A515CC8400A
:100FE0000649086006480068FFF7D2FE002048E77F
:100FF0000020024000100240D42F00080000002012
:101000000800002001480068704700000000002030
:1010100000B5FFF7F7FF04494968C1F30221034A0D
:10102000515CC84000BD000000100240E42F0008E1
:1010300000B5FFF7E7FF04494968C1F3C221034A3D
:10104000515CC84000BD000000100240E42F0008C1
:10105000F0B585B00FF26C0C9CE8E01001A8A0E898
:10106000E0101CA52D68009500210022002300241B
:101070000020194D696801F00C05F5B1042D02D06E
:10108000082D19D101E0154819E001ADC1F38346DF
:10109000AC5D01F4803555B10F4D6D68C5F3404529
:1010A0001DF805200D4D6543B5FBF2F302E00C4D34
:1010B00004FB05F3184602E000BF084800BF00BF6C
:1010C00005B0F0BD02030405060708090A0B0C0D64
:1010D0000E0F1010010200000010024000127A00F2
:1010E00000093D00F8B504460CB90120F8BD207890
:1010F00000F00100002878D0F848406800F00C00AB
:1011000004280CD0F548406800F00C00082811D1E4
:10111000F248406800F48030B0F5803F0AD1EF48D3
:10112000006800F4003000285FD0606800285CD1BF
:101130000120DBE700BF6068B0F5803F06D1E748DB
:10114000006840F48030E549086028E0606858B9DC
:10115000E248006820F48030E049086008460068F2
:1011600020F4802008601AE06068B0F5A02F0BD151
:10117000DA48006840F48020D849086008460068D2
:1011800040F4803008600AE0D448006820F48030E1
:10119000D24908600846006820F48020086000BF3B
:1011A000606888B1FFF7E2FD054606E0FFF7DEFD67
:1011B000401B642801D9032098E7C848006800F460
:1011C00000300028F2D010E0FFF7D0FD054606E021
:1011D000FFF7CCFD401B642801D9032086E7BF48F8
:1011E000006800F400300028F2D1207800F00200FE
:1011F000022857D1B948406800F00C0050B1B748F8
:10120000406800F00C00082818D1B448406800F489
:10121000803098B9B148006800F0020020B1206920
:10122000012801D0012061E7AC48006820F0F800F7
:10123000616940EAC100A949086033E02069E8B16A
:101240000120A7490860FFF791FD054606E0FFF77A
:101250008DFD401B022801D9032047E79F48006805
:1012600000F002000028F2D09C48006820F0F8004E
:10127000616940EAC1009949086013E0002098497B
:101280000860FFF773FD054606E0FFF76FFD401BA2
:10129000022801D9032029E79048006800F00200E5
:1012A0000028F2D1207800F0080008282DD1A0698C
:1012B000B8B101208B490860FFF758FD054606E0EC
:1012C000FFF754FD401B022801D903200EE7834895
:1012D000406A00F002000028F2D0012000F0A6FCD5
:1012E00013E000207F490860FFF740FD054606E057
:1012F000FFF73CFD401B022801D90320F6E67748A2
:10130000406A00F002000028F2D1207800F00400CA
:10131000042873D100277148C06900F0805070B96B
:1013200000BF6E48C06940F080506C49C8610846F3
:10133000C06900F08050009000BF00BF01276A48DC
:10134000006800F48070B0B96748006840F48070AD
:1013500065490860FFF70AFD054606E0FFF706FD50
:10136000401B642801D90320C0E65F48006800F4F0
:1013700080700028F2D000BFE068012806D15748ED
:10138000006A40F001005549086227E0E06858B95A
:101390005248006A20F00100504908620846006A7D
:1013A00020F00400086219E0E06805280BD14B48E2
:1013B000006A40F00400494908620846006A40F0AB
:1013C000010008620AE04548006A20F00100434934
:1013D00008620846006A20F00400086200BFE06866
:1013E000A0B1FFF7C3FC054609E0FFF7BFFC401BB7
:1013F00041F28831884202D9032077E622E037485B
:10140000006A00F002000028EFD012E0FFF7AEFC07
:10141000054608E0FFF7AAFC401B41F288318842EC
:1014200001D9032062E62D48006A00F0020000287E
:10143000F0D1012F05D12948C06920F080502749FB
:10144000C86100BFE069C8B32448406800F00C00E0
:10145000082860D0E069022848D1002020490866A9
:10146000FFF784FC054606E0FFF780FC401B0228DE
:1014700001D903203AE61948006800F000700028FE
:10148000F2D1206AB0F5803F07D11448406820F4BB
:101490000030A168084311494860D4E908010843B5
:1014A0000E49496821F4741108430C494860012031
:1014B0000B490866FFF75AFC054607E03DE0FFF7D9
:1014C00055FC401B022801D903200FE603480068A1
:1014D00000F000700028F2D02FE000000010024061
:1014E0000000424280044242007000400020144943
:1014F0000866FFF73BFC054606E0FFF737FC401B9C
:10150000022801D90320F1E50E48006800F00070C0
:101510000028F2D111E0E069012800D1E6E5094890
:10152000466806F48031206A814204D106F47011C5
:10153000606A814201D00120D8E50020D6E5000094
:10154000000042420010024070B51B480088401C59
:10155000194908800846008864282CD1174800687B
:10156000406A1749B1F90010C1EB0141084415491F
:1015700008600968144A1268881AFEF7DFFE0546FB
:101580004FF08541FEF79CFE04461049FEF766FECB
:101590000F4908600F490E480068FEF791FE0E499A
:1015A000086008480068084908600020024908806F
:1015B00001200A49087070BD2C000020B4010020F1
:1015C0002E00002014000020180000200000204100
:1015D0001C0000200000F04120000020240000201A
:1015E00070B504462546681EB0F1807F01D3012006
:1015F0000FE0681E4FF0E02148610F214FF0FF30EF
:1016000000F0FCFE00204FF0E02188610720086117
:10161000002070BD2DE9F04104460D4614B90120AB
:10162000BDE8F08194F83D0028B9002084F83C0022
:10163000204600F044F8022084F83D0020688068CD
:1016400044F20701884321688860211D206800F06A
:1016500097FB2068D0F80880206886692068076AB0
:10166000286840EA080840F203308643A969A86860
:1016700040EA0120064340F60C4086434FF2F0005A
:101680008643E969E86840EA0120064328690001C9
:10169000296A40EA0130064327F022076969686831
:1016A00040EA011007432068C0F80880206886617E
:1016B00020680762012084F83D000020B0E77047F1
:1016C00030B504460D4615B1042D0CD105E00122BC
:1016D0000021206800F0A2FB10E001220421206814
:1016E00000F09CFB0AE001220021206800F096FB3C
:1016F00001220421206800F091FB00BF00BF206898
:10170000006840F0010021680860002030BD70B51D
:1017100004460D46164600BF94F83C00012801D14E
:10172000022070BD012084F83C0000BF022084F834
:101730003D0036B1042E1BD0082E31D00C2E5ED1C8
:1017400045E02946206800F0D9FB2068806940F018
:101750000800216888612068806920F00400216801
:10176000886120688069296908432168886147E0A9
:101770002946206800F0FAFB2068806940F4006088
:10178000216888612068806920F480602168886110
:1017900020688069296940EA0120216888612FE07A
:1017A0002946206800F020FC2068C06940F008004D
:1017B0002168C8612068C06920F004002168C86100
:1017C0002068C069296908432168C86118E0294672
:1017D000206800F045FC2068C06940F40060216882
:1017E000C8612068C06920F480602168C8612068F1
:1017F000C069296940EA01202168C86100E000BF92
:1018000000BF012084F83D0000BF002084F83C00A8
:1018100000BF00BF85E710B504460CB9012010BD1C
:1018200094F83D0028B9002084F83C00204600F0E0
:101830000CF8022084F83D00211D206800F0A0FA79
:10184000012084F83D000020E9E7704770B50446A8
:101850000E4601223146206800F0E0FA0F49206868
:10186000884203D00E492068884201D1012000E05F
:10187000002028B12068406C40F400402168486492
:101880002068806800F00705062D05D020680068F4
:1018900040F0010021680860002070BD002C01406C
:1018A000003401400C490968096801F01001102951
:1018B00006D10A490988491E09B2084A118005E083
:1018C00006490988491C09B2044A11806FF00101D8
:1018D000014A126811617047B40100202E000020F7
:1018E00010B504460CB9012010BDA06900B100E09C
:1018F00000BF94F8390028B9002084F83800204649
:1019000000F028F8242084F839002068C06820F40A
:1019100000502168C860204600F050FC2068006933
:1019200020F49040216808612068406920F02A0076
:10193000216848612068C06840F400502168C86090
:101940000020E063202084F8390084F83A00002069
:10195000CAE7000010B586B0044600BF224880697F
:1019600040F48040204988610846806900F4804046
:10197000019000BF00BF00BF0846806940F004002E
:1019800088610846806900F00400019000BF00BF34
:1019900000BF0846806940F00400886108468069FD
:1019A00000F00400019000BF00BF48150290022023
:1019B0000390012004900320059002A90B48FFF733
:1019C0002FF8002003904FF48060029002A907488E
:1019D000FFF726F8012200212520FFF70FFA252026
:1019E000FFF7FCF906B010BD0010024000080140EE
:1019F0002DE9F84304460D4616461F464FF00009F0
:101A000094F8390020285CD105B116B90120BDE851
:101A1000F88300BF94F83800012801D10220F6E7CE
:101A2000012084F8380000BF0020E063212084F802
:101A30003900FFF79BF98146A684E6842BE0E08C11
:101A4000401EE084A068B0F5805F16D14B460022AE
:101A500080212046009700F081FC08B10320D6E7E2
:101A6000A846B8F80000C0F3080021684860206963
:101A700008B9AD1C0FE06D1C0DE04B460022802123
:101A80002046009700F06AFC08B10320BFE715F874
:101A9000010B21684860E08C0028D0D14B46002221
:101AA00040212046009700F059FC08B10320AEE722
:101AB000202084F8390000BF002084F8380000BFDF
:101AC000A5E70220A3E700BFFEE700BFFEE77047DF
:101AD0002DE9FC5F07460C4615461E46DDF83080B2
:101AE0004FF00009384600F0BFF82046FEF792FF9D
:101AF00042463146284600F0AFF81A4A116850684D
:101B0000FEF7A6FB174988600A469168D069FEF780
:101B10004DFB1449C8610A46D1689068FEF798FBEE
:101B20000190104881690198FEF798FB82460D4AA2
:101B3000D1695069FEF792FB0A4A019091681069D9
:101B4000FEF78CFB00900199FEF730FB834651466F
:101B5000FEF72CFB8146034880680249C86048466E
:101B6000BDE8FC9FF40100200020054908604860A2
:101B70008860C860C861886148610861704700007A
:101B8000F40100202DE9FC5F07460C4615461E4671
:101B9000DDF830804FF000093846FEF7CFFB824673
:101BA00000F062F82046FEF7C9FB8246FEF732FFDE
:101BB00042463146284600F04FF81A4A11685068EC
:101BC000FEF746FB174988600A469168D069FEF720
:101BD000EDFA1449C8610A46D1689068FEF738FBEF
:101BE0000190104881690198FEF738FB82460D4A42
:101BF000D1695069FEF732FB0A4A01909168106979
:101C0000FEF72CFB00900199FEF7D0FA834651466F
:101C1000FEF7CCFA8146034880680249C86048460E
:101C2000BDE8FC9FF40100207047000008B508499A
:101C30000968C9084FF47A72B1FBF2F1414300918F
:101C400000BF00BF00994A1E00920029F9D108BDCB
:101C50000000002070470000024B186159619A6132
:101C600070470000F40100200149486070470000FF
:101C7000F401002010B5FFF77FF8FFF765FC10BDF9
:101C800000B58FB014210AA8FEF785FA282168460E
:101C9000FEF781FA012000900004019000200290DC
:101CA00002200790C10308914FF4E01109916846A2
:101CB000FFF718FA08B100BFFEE70F200A900220D4
:101CC0000B9000200C900E904FF480600D9002213C
:101CD0000AA8FFF7D1F808B100BFFEE70FB000BDBA
:101CE0001148006840F001000F490860084640684C
:101CF0000E4908400C494860084600680C490840F5
:101D0000094908600846006820F4802008600846F9
:101D1000406820F4FE0048604FF41F008860C8034C
:101D20000449086070470000001002400000FFF8FE
:101D3000FFFFF6FE08ED00E030B1042808D00828C7
:101D40000AD00C2810D10BE0084A126851630BE04E
:101D5000064A1268916307E0044A1268D16303E0FF
:101D6000024A1268116400BF00BF7047740100206E
:101D700010B50248FFF796FD10BD0000B401002029
:101D800010B50268204B98420ED0204B98420BD0E1
:101D9000B0F1804F08D01E4B984205D01D4B9842A1
:101DA00002D01D4B984203D122F070024B681A43B7
:101DB000154B98420ED0154B98420BD0B0F1804F86
:101DC00008D0134B984205D0124B984202D0124BC8
:101DD000984203D122F44072CB681A4322F0800368
:101DE0004C6943EA040202608B68C3620B68836239
:101DF000054B984202D0054B984201D10B69036311
:101E00000123436110BD0000002C0140003401405B
:101E10000004004000080040000C004030B501F014
:101E20001F05012404FA05F3046A9C430462046A52
:101E300001F01F0502FA05F52C43046230BD0000D5
:101E400000B58BB000BF2A48C06940F002002849A5
:101E5000C8610846C06900F00200019000BF00BFE1
:101E600024482549086000204860002122488160FC
:101E70004FF6FF71C1600021016181610320029072
:101E80000020039001200490002005900690079008
:101E900001200890002009900A9002A91648FFF737
:101EA000B9FB0020144909684862801E124909687C
:101EB000086111480068C06840F001000E490968D7
:101EC000C8600D480068006840F004000A490968CD
:101ED0000860012205211D20FEF790FF1D20FEF75E
:101EE0007DFF3C210448FFF7EBFB0BB000BD000079
:101EF0000010024000040040B401002030B5056A23
:101F000025F001050562026A4368846924F07004C3
:101F100024F003040D682C4322F002028D682A434A
:101F2000104DA84200D103E00F4DA84206D100BFDA
:101F300022F00802CD682A4322F00402094DA8428B
:101F400002D0094DA84207D123F4807323F4007313
:101F50004D692B438D692B43436084614D68456314
:101F6000026230BD002C01400034014030B5056AEA
:101F700025F010050562026A4368846924F4E04490
:101F800024F440740D6844EA052422F020028D6890
:101F900042EA0512124DA84200D103E0114DA842B9
:101FA00007D100BF22F08002CD6842EA051222F07C
:101FB00040020B4DA84202D00A4DA84209D123F499
:101FC000806323F400634D6943EA85038D6943EA26
:101FD0008503436084614D688563026230BD000003
:101FE000002C01400034014030B5056A25F48075AD
:101FF0000562026A4368C46924F0700424F0030493
:102000000D682C4322F400728D6842EA0522124DBD
:10201000A84200D103E0114DA84207D100BF22F42D
:102020000062CD6842EA052222F480620A4DA8428D
:1020300002D00A4DA84209D123F4805323F400535F
:102040004D6943EA05138D6943EA05134360C46192
:102050004D68C563026230BD002C01400034014070
:1020600030B5056A25F480550562036A4468C26983
:1020700022F4E04222F440720D6842EA052223F481
:1020800000538D6843EA0533084DA84202D0084D3D
:10209000A84204D124F480444D6944EA8514446084
:1020A000C2614D680564036230BD0000002C014030
:1020B0000034014000B589B000BF2048C06940F03D
:1020C00008001E49C8610846C06900F00800019078
:1020D00000BF00BF1A481B49086040F2E7311948A9
:1020E000C16040F2CF201749486000211548816047
:1020F0000161FFF790FB60200290002003900490A4
:1021000005904FF480700790002008900690002200
:1021100002A90C48FFF7FBFA00210A48FFF796FBDB
:1021200000200390042202A90648FFF7F0FA0421D8
:102130000448FFF78BFB09B000BD0000001002400F
:10214000000C00407401002010B500F003F8FFF708
:10215000B1FF10BD00B585B000BF1648806940F0E2
:102160000400144988610846806900F0040000906A
:1021700000BF00BF00BF0846806940F004008861CE
:102180000846806900F00400009000BF00BF0220F4
:102190000290032004900120019001A90648FEF757
:1021A0003FFC0220019001A90348FEF739FC05B06D
:1021B00000BD0000001002400008014070B5044658
:1021C0002168096921F44051E268114322681161D4
:1021D0002269A1681143626941EA02052168C96860
:1021E00041F20C62914329432268D1602168496918
:1021F00021F44071A269114322685161564A216855
:10220000914254D1FEF714FF00EBC00101EB001125
:1022100062689200B1FBF2F100EBC00202EB001227
:1022200063689B00B2FBF3F26423B2FBF3F202EBB0
:10223000C20303EB0212A1EB8201322202EB011175
:102240006422B1FBF2F101F0F00100EBC00202EBFD
:10225000001263689B00B2FBF3F26423B2FBF3F25B
:1022600001EB021200EBC00101EB001163689B005F
:10227000B1FBF3F100EBC00303EB00136668B6009B
:10228000B3FBF6F36426B3FBF6F303EBC30606EBEE
:102290000313A1EB8301322303EB01116423B1FB90
:1022A000F3F101F00F0111442268916053E0FEF751
:1022B000AFFE00EBC00101EB001162689200B1FBC0
:1022C000F2F100EBC00202EB001263689B00B2FB6C
:1022D000F3F26423B2FBF3F202EBC20303EB02124C
:1022E000A1EB8201322202EB01116422B1FBF2F177
:1022F00001F0F00100EBC00202EB001263689B00EA
:10230000B2FBF3F26423B2FBF3F201EB021200EB37
:10231000C00101EB001163689B00B1FBF3F100EB1E
:10232000C00303EB00136668B600B3FBF6F3642644
:10233000B3FBF6F303EBC30606EB0313A1EB830138
:10234000322303EB01116423B1FBF3F101F00F0120
:1023500011442268916070BD003801402DE9F041C0
:1023600004460D4617469846069E21E0701CF8B1BB
:102370002EB1FEF7FBFCA0EB0800B04218D9206894
:10238000C06820F4D0702168C8602068406920F0DF
:10239000010021684861202084F8390084F83A005F
:1023A00000BF002084F8380000BF0320BDE8F081A2
:1023B000206800682840A84201D1012000E00020E8
:1023C000B842D3D00020F1E700BFFEE70FB4054BC1
:1023D00010B503A9044A029800F0F6F810BC5DF8A5
:1023E00014FB0000F92C00083000002002480068AF
:1023F000C0F30220704700000CED00E010B500288B
:1024000004DB0A07130E054A135406E00A07140EEC
:10241000034A00F00F031B1FD45410BD00E400E07A
:1024200018ED00E002E008C8121F08C1002AFAD126
:1024300070477047002001E001C1121F002AFBD144
:10244000704700002DE9FF5F82B00021DDE9043014
:10245000020DDDF840B0034318D044F61050A2F24C
:10246000FF3242431514119801281FD0A5EB0B0031
:10247000401C5FEA000A4FF000064E4FDFF838912B
:10248000B046504615D5CAF1000413E01198012456
:102490004AA3012801D16FEA0B010298119AC0E901
:1024A0000031C0E9024206B0BDE8F09FCBF1000068
:1024B000DFE704460021404A491842EB0450CDE9C9
:1024C000001012E0E00707D032463B46404649463E
:1024D000FEF78EF88046894632463B46104619463E
:1024E000FEF786F806460F466410002CEAD1DDE9B7
:1024F0000401DDE90023BAF1000F06DAFEF778F8EF
:1025000042464B46FEF774F805E0FEF7E3F8424614
:102510004B46FEF7DFF804460E460022284BFEF736
:1025200061F903D84FF0FF30014607E00022254B48
:1025300020463146FDF7B5FFFEF73BF9102409E0D0
:10254000002C0ADB0A220023FDF743FF039B3032F5
:102550001A55641E50EA0102F2D1641C039AC4F1B8
:1025600011031444119A012A03D0012208430DD10A
:102570000AE0084304D000204FF0110B119072E7DD
:10258000A3EB0B056D1E0DE05B4504DD4FF0000273
:1025900005F1010504E003DA4FF00002A5F10105A1
:1025A000002AECD002981199C0E90231C0E9004537
:1025B00079E70000000014400000F03F3000000008
:1025C0000000F0430000E03F2DE9FF4F95B09B462F
:1025D0008946064600250FE2252877D100242746A4
:1025E000F84A0121059400E0044316F8013F203B1E
:1025F00001FA03F01042F7D130782A2811D06FF099
:102600002F033078A0F13002092A16D8059A44F039
:10261000020402EB820203EB42021044761C059096
:10262000EFE759F8042B0592002A03DA504244F4EC
:102630000054059044F00204761C30782E2816D100
:1026400016F8010F44F004042A280DD06FF02F0271
:102650003078A0F13003092B09D807EB870302EB90
:102660004303C718761CF3E759F8047B761C3078CF
:102670006C280FD006DC4C2817D068280DD06A28AB
:1026800014D104E0742810D07A280FD10DE044F45E
:1026900000140AE044F4801401E044F44014727819
:1026A000824202D104F58014761C761C30786628AC
:1026B0000BD013DC582877D009DC002875D04528CA
:1026C000F6D04628F4D047281AD19DE118E06328B7
:1026D00035D0642879D0652812D195E1702873D05F
:1026E00008DC6728F1D069286FD06E280DD06F28DC
:1026F00006D1B5E073282CD0752875D0782874D011
:102700005A46179990476D1C75E1C4F30250022890
:1027100009D003280DD0D9F8001004280DD00D6081
:1027200009F1040967E1D9F80010EA17C1E900527C
:10273000F6E7D9F800100D80F2E70D70F0E719F810
:10274000041B8DF8001000208DF80100EA460120DE
:1027500003E059F804AB4FF0FF3061074FF0000180
:1027600002D40DE008F101018846B9420FDA804534
:10277000F8DB1AF808100029F4D108E008F101018B
:1027800088468142FADB1AF808100029F6D105982C
:102790005B46A0EB080721463846179A00F094FAEA
:1027A000284400EB080507E04DE029E10DE01AF8A8
:1027B000010B5A4617999047B8F10108F7D25B46CA
:1027C00021463846179A13E142E00A220092C4F3E8
:1027D00002524FF0000A022A08D059F804CB032A0B
:1027E0004FEAEC710AD00DE029E02AE009F1070177
:1027F00021F00702F2E802C1914609E00FFA8CFCD1
:102800004FEAEC71042A03D14FFA8CFC4FEAEC71C9
:10281000002907DA0A460021DCF1000C61EB020115
:102820002D2202E0220504D52B228DF8042001225E
:1028300003E0E20701D02022F7E7904659E00A21A1
:1028400002E010220DE010214FF0000A00910BE091
:1028500010224FF0000A44F004040827009203E01D
:1028600008224FF0000A0092C4F30252022A05D057
:1028700059F804CB0021032A08D009E009F1070127
:1028800021F00702F2E802C1914605E01FFA8CFC34
:10289000042A01D10CF0FF0C4FF00008220728D5C4
:1028A000702806D0009B83F0100353EA0A0305D07A
:1028B0000EE040228DF80420012208E05CEA0102CB
:1028C00006D030228DF804208DF8050002229046B3
:1028D000009B83F0080353EA0A030AD15CEA010271
:1028E00001D1620705D530228DF804204FF0010890
:1028F0007F1E582804D034A003900EA802900DE04B
:1029000036A0F9E753466046009AFDF762FD84461B
:102910000398825C0298401E029002705CEA0100FB
:10292000F0D1029806A9081A00F1200A600702D522
:1029300024F4803400E00127574502DDA7EB0A00AC
:1029400000E0002000EB0A01009005984144401A85
:102950000590E00306D45B462146179A059800F0DF
:10296000B3F90544002706E001A85A46C05D17994F
:1029700090476D1C7F1C4745F6DBE0030CD55B469A
:102980002146179A059800F09FF9054404E030208D
:102990005A46179990476D1C0099481E00900029CF
:1029A000F5DC08E0029802995A460078491C029129
:1029B000179990476D1CBAF10001AAF1010AF1DCE8
:1029C00065E10000092801003031323334353637F3
:1029D000383961626364656600000000303132336B
:1029E000343536373839414243444546000000000B
:1029F00000F058F90544761C307800287FF4ECADDF
:102A000019B02846BDE8F08F620700D4062709F107
:102A1000070222F0070CFCE80223E14603F000481D
:102A20005FEA080C02D00FF2702C0DE05FEA045C44
:102A300002D50FF2682C07E05FEAC47C02D00FF2E7
:102A4000602C01E0AFF2700C4FF0FF3823F0004330
:102A5000CDF850C065280CD006DC452809D04628A2
:102A60001DD047283DD13DE0662818D067287ED18B
:102A700038E00021112F01DB112000E0781CCDE9A6
:102A8000000106A90EA8FFF7DDFCDDE90F010E9A93
:102A900003910021009207F1010A04914DE04FF0EB
:102AA00000400097CDE9011006A90EA8FFF7CAFC67
:102AB000DDE90F0203920E9B11990022DDF80CA0B4
:102AC0000093049211B9791C00EB010AB7EB0A00DC
:102AD00004D4C0F1FF3007F1010A0490AAEB07000B
:102AE000019044E0012F00DA01270021112F01DDC0
:102AF000112000E03846CDE9000106A90EA8FFF735
:102B0000A1FCDDE90F010E9A0391002104910092CE
:102B1000BA4621070CD40399514500DA8A46BAF126
:102B2000010F05DD009AAAF10101515C302908D09E
:102B3000B84202DA10F1040F06DA0121CDE90110E2
:102B400015E0AAF10101E9E7002805DC0499014438
:102B50000491AAEB000102E0411C514500DD8A46C8
:102B60000499401A401C01904FF000400290200749
:102B700004D40198504501DBCDF8048000208DF885
:102B80004F0002980DF14F07B0F1004F25D02B20D8
:102B90000E9002984FF0020800280CDA4042029092
:102BA0002D200E9007E00A210298FDF7FCFB303142
:102BB000029007F8011DB8F10001A8F10108F2DC4C
:102BC00002980028EFD1791E0E980870307800F036
:102BD000200040F0450007F8020D12A8C01B00F1CC
:102BE00007081498007800B1012000EB0A01019851
:102BF00001EBE07105984144401A401E0590E00346
:102C000006D45B462146179A059800F05DF8054406
:102C10001498007818B15A46179990476D1CE00334
:102C200024D55B462146179A059800F04DF80544D7
:102C30001CE00498002807DBDDE90301884203DD7E
:102C40000098405C179901E0179930205A46904748
:102C5000049805F10105401C04900198401E019064
:102C600004D12E205A46179990476D1CBAF10001E5
:102C7000AAF1010ADDDC05E017F8010B5A461799A5
:102C800090476D1CB8F10001A8F10108F4DC5B4627
:102C90002146179A0598ABE62D0000002B00000096
:102CA000200000002DE9F041044600251E4617468D
:102CB000880404D405E039462020B0476D1C641E0A
:102CC000F9D52846BDE8F0812DE9F04104460025FC
:102CD0001E469046C80301D5302700E0202788040F
:102CE00004D505E041463846B0476D1C641EF9D551
:102CF0002846BDE8F081000013B50C464FF47A7306
:102D0000012269460248FEF773FE00981CBD0000D0
:102D1000340000201CB54FF4E1700190012500261D
:102D200000244FF000094FF0000A4FF0000BFEF7AF
:102D3000A7FF00BF4548806940F001004349886112
:102D40000846806900F00100009000BF00BF052028
:102D5000FEF71EF8FDF7F0FD3D48FFF737FB00F0EA
:102D6000BFF800F001F900F009F9FDF74DFE284623
:102D700000F0DCF8FEF7F8FE67E03648007801283E
:102D800063D10020344B9A070090344801683448DE
:102D90000068FEF7F7FE81464FF085414846FDF793
:102DA0008FFA07462F49FDF759FA83462E495846B0
:102DB000FDF786FA8246294801682CA0FFF706FB3A
:102DC0004846FDF7DDFA07463A460B462CA0FFF7CA
:102DD000FDFA5046FDF7D4FA07463A460B462DA0B9
:102DE000FFF7F4FA30480068FDF7CAFA07463A469A
:102DF0000B462EA0FFF7EAFA0020174B324A00904C
:102E0000294801685046FEF763FE06463046FDF746
:102E10009EFA044621462DA0FFF7D8FA002C01DACD
:102E2000002500E00125284600F080F8002C00DA9B
:102E3000644240F21450844200DD044621460420DE
:102E4000FEF77AFF00200349087096E70010024061
:102E5000EC2F000824000020CDCC4C3D14000020B5
:102E600028000020000020410000F0414361707400
:102E700075726520436F756E743A25640D0A000003
:102E80006F757470757420436F756E743A252E34A7
:102E9000660D0A006578706563742056616C3A258A
:102EA0002E34660D0A000000200000206163747556
:102EB000616C5F76616CA3BA252E346620D7AA2F89
:102EC000C3EB200D0A000000000016434F5554507C
:102ED00055542050574D3A25640D0A0D0A00000044
:102EE00010B5FFF731F900F001F810BD00B585B05D
:102EF00000BF0C48806940F008000A498861084614
:102F0000806900F00800009000BF00BF012002901F
:102F1000032004900815019001A90348FDF780FDE6
:102F200005B000BD00100240000C014010B5044681
:102F3000012C09D1002201210A48FDF711FF0122CD
:102F4000D1020848FDF70CFF54B90122114605488B
:102F5000FDF706FF00224FF400610248FDF700FF75
:102F600010BD0000000C014010B500224FF480613C
:102F70000148FDF7F5FE10BD000C014000B585B01D
:102F8000012291021148FDF7EBFE00BF1048806955
:102F900040F008000E4988610846806900F008008A
:102FA000009000BF00BF0120029003200490012088
:102FB000019001A90548FDF733FD4FF40060019031
:102FC00001A90248FDF72CFD05B000BD000C014031
:102FD0000010024000000000000000000102030495
:102FE0000607080900000000010203040D0AA1AA57
:102FF000A1AAA1AAA1AAA1AAA1AAA1AAA1AAA1AA79
:10300000A1AAD2B0BBF0BCF5CBD9B5E7BBFAB1E011
:10301000C2EBC6F7B2E2CBD9D1DDCABEB3CCD0F297
:10302000A1AAA1AAA1AAA1AAA1AAA1AAA1AAA1AA48
:10303000A1AAA1AA0D0A0000583000080000002033
:1030400034000000242400088C30000834000020E4
:10305000E4050000342400080024F400000000000F
:10306000100000000100000000000000000000004F
:103070000000000000000000000000000000000050
:0C30800000000000000000000000000044
:0400000508000131BD
:00000001FF
